{
  "contracts/Supply.sol": {
    "Supply": {
      "abi": [
        {
          "anonymous": false,
          "inputs": [
            {
              "indexed": false,
              "internalType": "uint256",
              "name": "id",
              "type": "uint256"
            }
          ],
          "name": "Added",
          "type": "event"
        },
        {
          "anonymous": false,
          "inputs": [
            {
              "indexed": false,
              "internalType": "uint256",
              "name": "id",
              "type": "uint256"
            },
            {
              "indexed": false,
              "internalType": "address",
              "name": "nextAddress",
              "type": "address"
            }
          ],
          "name": "Addednext",
          "type": "event"
        },
        {
          "anonymous": false,
          "inputs": [
            {
              "indexed": false,
              "internalType": "uint256",
              "name": "id",
              "type": "uint256"
            },
            {
              "indexed": false,
              "internalType": "address",
              "name": "current",
              "type": "address"
            },
            {
              "indexed": false,
              "internalType": "address",
              "name": "prev",
              "type": "address"
            },
            {
              "indexed": false,
              "internalType": "address",
              "name": "owner",
              "type": "address"
            }
          ],
          "name": "Delivered",
          "type": "event"
        },
        {
          "anonymous": false,
          "inputs": [],
          "name": "InvalidAcceptor",
          "type": "event"
        },
        {
          "inputs": [
            {
              "internalType": "uint256",
              "name": "id",
              "type": "uint256"
            }
          ],
          "name": "AcceptDelivery",
          "outputs": [],
          "stateMutability": "nonpayable",
          "type": "function"
        },
        {
          "inputs": [
            {
              "internalType": "uint256",
              "name": "id",
              "type": "uint256"
            },
            {
              "internalType": "address",
              "name": "nextAddress",
              "type": "address"
            }
          ],
          "name": "DeliverNext",
          "outputs": [],
          "stateMutability": "nonpayable",
          "type": "function"
        },
        {
          "inputs": [
            {
              "internalType": "uint256",
              "name": "",
              "type": "uint256"
            },
            {
              "internalType": "uint256",
              "name": "",
              "type": "uint256"
            }
          ],
          "name": "Link",
          "outputs": [
            {
              "internalType": "address",
              "name": "next",
              "type": "address"
            },
            {
              "internalType": "bool",
              "name": "DelStatus",
              "type": "bool"
            }
          ],
          "stateMutability": "view",
          "type": "function"
        },
        {
          "inputs": [
            {
              "internalType": "uint256",
              "name": "id",
              "type": "uint256"
            }
          ],
          "name": "ProductDetails",
          "outputs": [
            {
              "components": [
                {
                  "internalType": "uint256",
                  "name": "id",
                  "type": "uint256"
                },
                {
                  "internalType": "string",
                  "name": "name",
                  "type": "string"
                },
                {
                  "internalType": "address",
                  "name": "Manufacturer",
                  "type": "address"
                }
              ],
              "internalType": "struct Supply.Product",
              "name": "prod",
              "type": "tuple"
            }
          ],
          "stateMutability": "view",
          "type": "function"
        },
        {
          "inputs": [
            {
              "internalType": "uint256",
              "name": "id",
              "type": "uint256"
            }
          ],
          "name": "Track",
          "outputs": [
            {
              "components": [
                {
                  "internalType": "address",
                  "name": "next",
                  "type": "address"
                },
                {
                  "internalType": "bool",
                  "name": "DelStatus",
                  "type": "bool"
                }
              ],
              "internalType": "struct Supply.Next[]",
              "name": "track",
              "type": "tuple[]"
            }
          ],
          "stateMutability": "view",
          "type": "function"
        },
        {
          "inputs": [
            {
              "internalType": "uint256",
              "name": "id",
              "type": "uint256"
            },
            {
              "internalType": "string",
              "name": "Pname",
              "type": "string"
            }
          ],
          "name": "addProduct",
          "outputs": [],
          "stateMutability": "nonpayable",
          "type": "function"
        },
        {
          "inputs": [
            {
              "internalType": "uint256",
              "name": "",
              "type": "uint256"
            }
          ],
          "name": "products",
          "outputs": [
            {
              "internalType": "uint256",
              "name": "id",
              "type": "uint256"
            },
            {
              "internalType": "string",
              "name": "name",
              "type": "string"
            },
            {
              "internalType": "address",
              "name": "Manufacturer",
              "type": "address"
            }
          ],
          "stateMutability": "view",
          "type": "function"
        },
        {
          "inputs": [],
          "name": "showProducts",
          "outputs": [
            {
              "components": [
                {
                  "internalType": "uint256",
                  "name": "id",
                  "type": "uint256"
                },
                {
                  "internalType": "string",
                  "name": "name",
                  "type": "string"
                },
                {
                  "internalType": "address",
                  "name": "Manufacturer",
                  "type": "address"
                }
              ],
              "internalType": "struct Supply.Product[]",
              "name": "productList",
              "type": "tuple[]"
            }
          ],
          "stateMutability": "view",
          "type": "function"
        },
        {
          "inputs": [
            {
              "internalType": "uint256",
              "name": "id",
              "type": "uint256"
            }
          ],
          "name": "verify",
          "outputs": [
            {
              "components": [
                {
                  "internalType": "address",
                  "name": "next",
                  "type": "address"
                },
                {
                  "internalType": "bool",
                  "name": "DelStatus",
                  "type": "bool"
                }
              ],
              "internalType": "struct Supply.Next[]",
              "name": "",
              "type": "tuple[]"
            },
            {
              "internalType": "bool",
              "name": "",
              "type": "bool"
            }
          ],
          "stateMutability": "view",
          "type": "function"
        }
      ],
      "evm": {
        "bytecode": {
          "linkReferences": {},
          "object": "6080604052348015600f57600080fd5b506121588061001f6000396000f3fe608060405234801561001057600080fd5b50600436106100935760003560e01c80637acc0b20116100665780637acc0b20146101315780638753367f14610163578063915b59a314610194578063a34e5649146101b0578063fa2f3e27146101ce57610093565b806323cd950a1461009857806332523012146100b45780635b12a84a146100d057806360d1b93d14610100575b600080fd5b6100b260048036038101906100ad919061155e565b6101fe565b005b6100ce60048036038101906100c99190611618565b6103df565b005b6100ea60048036038101906100e59190611658565b610675565b6040516100f7919061178d565b60405180910390f35b61011a600480360381019061011591906117af565b61082a565b60405161012892919061180d565b60405180910390f35b61014b60048036038101906101469190611658565b610894565b60405161015a939291906118c4565b60405180910390f35b61017d60048036038101906101789190611658565b610966565b60405161018b929190611902565b60405180910390f35b6101ae60048036038101906101a99190611658565b610b5e565b005b6101b8610e14565b6040516101c59190611a9d565b60405180910390f35b6101e860048036038101906101e39190611658565b611065565b6040516101f59190611b0f565b60405180910390f35b60405180606001604052808381526020018281526020013373ffffffffffffffffffffffffffffffffffffffff16815250600160008481526020019081526020016000206000820151816000015560208201518160010190816102619190611d3d565b5060408201518160020160006101000a81548173ffffffffffffffffffffffffffffffffffffffff021916908373ffffffffffffffffffffffffffffffffffffffff1602179055509050506002600083815260200190815260200160002060405180604001604052803373ffffffffffffffffffffffffffffffffffffffff168152602001600115158152509080600181540180825580915050600190039060005260206000200160009091909190915060008201518160000160006101000a81548173ffffffffffffffffffffffffffffffffffffffff021916908373ffffffffffffffffffffffffffffffffffffffff16021790555060208201518160000160146101000a81548160ff021916908315150217905550505060008290806001815401808255809150506001900390600052602060002001600090919091909150557f64a55044d1f2eddebe1b90e8e2853e8e96931cefadbfa0b2ceb34bee36061941826040516103d39190611e0f565b60405180910390a15050565b3373ffffffffffffffffffffffffffffffffffffffff16600260008481526020019081526020016000206001600260008681526020019081526020016000208054905061042c9190611e59565b8154811061043d5761043c611e8d565b5b9060005260206000200160000160009054906101000a900473ffffffffffffffffffffffffffffffffffffffff1673ffffffffffffffffffffffffffffffffffffffff16146104c1576040517f08c379a00000000000000000000000000000000000000000000000000000000081526004016104b890611f08565b60405180910390fd5b6001151560026000848152602001908152602001600020600160026000868152602001908152602001600020805490506104fb9190611e59565b8154811061050c5761050b611e8d565b5b9060005260206000200160000160149054906101000a900460ff16151514610569576040517f08c379a000000000000000000000000000000000000000000000000000000000815260040161056090611f74565b60405180910390fd5b6002600083815260200190815260200160002060405180604001604052808373ffffffffffffffffffffffffffffffffffffffff168152602001600015158152509080600181540180825580915050600190039060005260206000200160009091909190915060008201518160000160006101000a81548173ffffffffffffffffffffffffffffffffffffffff021916908373ffffffffffffffffffffffffffffffffffffffff16021790555060208201518160000160146101000a81548160ff02191690831515021790555050507f14d98a680d48365f0a6c905042d9581c316790fcc5b03ccbdb7954fead16c4208282604051610669929190611f94565b60405180910390a15050565b6060600080600090505b6002600085815260200190815260200160002080549050811015610738573373ffffffffffffffffffffffffffffffffffffffff166002600086815260200190815260200160002082815481106106d9576106d8611e8d565b5b9060005260206000200160000160009054906101000a900473ffffffffffffffffffffffffffffffffffffffff1673ffffffffffffffffffffffffffffffffffffffff160361072b5760019150610738565b808060010191505061067f565b5060011515811515036108235760026000848152602001908152602001600020805480602002602001604051908101604052809291908181526020016000905b82821015610817578382906000526020600020016040518060400160405290816000820160009054906101000a900473ffffffffffffffffffffffffffffffffffffffff1673ffffffffffffffffffffffffffffffffffffffff1673ffffffffffffffffffffffffffffffffffffffff1681526020016000820160149054906101000a900460ff16151515158152505081526020019060010190610778565b50505050915050610825565b505b919050565b6002602052816000526040600020818154811061084657600080fd5b90600052602060002001600091509150508060000160009054906101000a900473ffffffffffffffffffffffffffffffffffffffff16908060000160149054906101000a900460ff16905082565b60016020528060005260406000206000915090508060000154908060010180546108bd90611b60565b80601f01602080910402602001604051908101604052809291908181526020018280546108e990611b60565b80156109365780601f1061090b57610100808354040283529160200191610936565b820191906000526020600020905b81548152906001019060200180831161091957829003601f168201915b5050505050908060020160009054906101000a900473ffffffffffffffffffffffffffffffffffffffff16905083565b606060008060005b6002600086815260200190815260200160002080549050811015610a7957600073ffffffffffffffffffffffffffffffffffffffff166002600087815260200190815260200160002082815481106109c9576109c8611e8d565b5b9060005260206000200160000160009054906101000a900473ffffffffffffffffffffffffffffffffffffffff1673ffffffffffffffffffffffffffffffffffffffff1614158015610a5e575060011515600260008781526020019081526020016000208281548110610a3f57610a3e611e8d565b5b9060005260206000200160000160149054906101000a900460ff161515145b15610a6c5760019150610a79565b808060010191505061096e565b50600260008581526020019081526020016000208181805480602002602001604051908101604052809291908181526020016000905b82821015610b4e578382906000526020600020016040518060400160405290816000820160009054906101000a900473ffffffffffffffffffffffffffffffffffffffff1673ffffffffffffffffffffffffffffffffffffffff1673ffffffffffffffffffffffffffffffffffffffff1681526020016000820160149054906101000a900460ff16151515158152505081526020019060010190610aaf565b5050505091509250925050915091565b600060016002600084815260200190815260200160002080549050610b839190611e59565b90503373ffffffffffffffffffffffffffffffffffffffff16600260008481526020019081526020016000208281548110610bc157610bc0611e8d565b5b9060005260206000200160000160009054906101000a900473ffffffffffffffffffffffffffffffffffffffff1673ffffffffffffffffffffffffffffffffffffffff1614610c45576040517f08c379a0000000000000000000000000000000000000000000000000000000008152600401610c3c90612009565b60405180910390fd5b60001515600260008481526020019081526020016000208281548110610c6e57610c6d611e8d565b5b9060005260206000200160000160149054906101000a900460ff16151514610ccb576040517f08c379a0000000000000000000000000000000000000000000000000000000008152600401610cc290612075565b60405180910390fd5b6001600260008481526020019081526020016000208281548110610cf257610cf1611e8d565b5b9060005260206000200160000160146101000a81548160ff021916908315150217905550600060026000848152602001908152602001600020600183610d389190611e59565b81548110610d4957610d48611e8d565b5b9060005260206000200160000160009054906101000a900473ffffffffffffffffffffffffffffffffffffffff169050600060026000858152602001908152602001600020600081548110610da157610da0611e8d565b5b9060005260206000200160000160009054906101000a900473ffffffffffffffffffffffffffffffffffffffff1690507fcacb7e308b842a06026decd9a1003d03ebcd115502c475c098b52dd4fe34c92484338484604051610e069493929190612095565b60405180910390a150505050565b60606000805b600080549050811015610e75576000808281548110610e3c57610e3b611e8d565b5b90600052602060002001549050610e53813361125a565b15610e67578280610e63906120da565b9350505b508080600101915050610e1a565b5060008167ffffffffffffffff811115610e9257610e91611433565b5b604051908082528060200260200182016040528015610ecb57816020015b610eb8611397565b815260200190600190039081610eb05790505b5090506000805b60008054905081101561105b576000808281548110610ef457610ef3611e8d565b5b90600052602060002001549050610f0b813361125a565b1561104d576001600082815260200190815260200160002060405180606001604052908160008201548152602001600182018054610f4890611b60565b80601f0160208091040260200160405190810160405280929190818152602001828054610f7490611b60565b8015610fc15780601f10610f9657610100808354040283529160200191610fc1565b820191906000526020600020905b815481529060010190602001808311610fa457829003601f168201915b505050505081526020016002820160009054906101000a900473ffffffffffffffffffffffffffffffffffffffff1673ffffffffffffffffffffffffffffffffffffffff1673ffffffffffffffffffffffffffffffffffffffff168152505084848151811061103357611032611e8d565b5b60200260200101819052508280611049906120da565b9350505b508080600101915050610ed2565b5081935050505090565b61106d611397565b600080600090505b600260008581526020019081526020016000208054905081101561112e573373ffffffffffffffffffffffffffffffffffffffff166002600086815260200190815260200160002082815481106110cf576110ce611e8d565b5b9060005260206000200160000160009054906101000a900473ffffffffffffffffffffffffffffffffffffffff1673ffffffffffffffffffffffffffffffffffffffff1603611121576001915061112e565b8080600101915050611075565b50600115158115150361125357600160008481526020019081526020016000206040518060600160405290816000820154815260200160018201805461117390611b60565b80601f016020809104026020016040519081016040528092919081815260200182805461119f90611b60565b80156111ec5780601f106111c1576101008083540402835291602001916111ec565b820191906000526020600020905b8154815290600101906020018083116111cf57829003601f168201915b505050505081526020016002820160009054906101000a900473ffffffffffffffffffffffffffffffffffffffff1673ffffffffffffffffffffffffffffffffffffffff1673ffffffffffffffffffffffffffffffffffffffff1681525050915050611255565b505b919050565b60008173ffffffffffffffffffffffffffffffffffffffff166001600085815260200190815260200160002060020160009054906101000a900473ffffffffffffffffffffffffffffffffffffffff1673ffffffffffffffffffffffffffffffffffffffff16036112ce5760019050611391565b60005b600260008581526020019081526020016000208054905081101561138b578273ffffffffffffffffffffffffffffffffffffffff1660026000868152602001908152602001600020828154811061132b5761132a611e8d565b5b9060005260206000200160000160009054906101000a900473ffffffffffffffffffffffffffffffffffffffff1673ffffffffffffffffffffffffffffffffffffffff160361137e576001915050611391565b80806001019150506112d1565b50600090505b92915050565b60405180606001604052806000815260200160608152602001600073ffffffffffffffffffffffffffffffffffffffff1681525090565b6000604051905090565b600080fd5b600080fd5b6000819050919050565b6113f5816113e2565b811461140057600080fd5b50565b600081359050611412816113ec565b92915050565b600080fd5b600080fd5b6000601f19601f8301169050919050565b7f4e487b7100000000000000000000000000000000000000000000000000000000600052604160045260246000fd5b61146b82611422565b810181811067ffffffffffffffff8211171561148a57611489611433565b5b80604052505050565b600061149d6113ce565b90506114a98282611462565b919050565b600067ffffffffffffffff8211156114c9576114c8611433565b5b6114d282611422565b9050602081019050919050565b82818337600083830152505050565b60006115016114fc846114ae565b611493565b90508281526020810184848401111561151d5761151c61141d565b5b6115288482856114df565b509392505050565b600082601f83011261154557611544611418565b5b81356115558482602086016114ee565b91505092915050565b60008060408385031215611575576115746113d8565b5b600061158385828601611403565b925050602083013567ffffffffffffffff8111156115a4576115a36113dd565b5b6115b085828601611530565b9150509250929050565b600073ffffffffffffffffffffffffffffffffffffffff82169050919050565b60006115e5826115ba565b9050919050565b6115f5816115da565b811461160057600080fd5b50565b600081359050611612816115ec565b92915050565b6000806040838503121561162f5761162e6113d8565b5b600061163d85828601611403565b925050602061164e85828601611603565b9150509250929050565b60006020828403121561166e5761166d6113d8565b5b600061167c84828501611403565b91505092915050565b600081519050919050565b600082825260208201905092915050565b6000819050602082019050919050565b6116ba816115da565b82525050565b60008115159050919050565b6116d5816116c0565b82525050565b6040820160008201516116f160008501826116b1565b50602082015161170460208501826116cc565b50505050565b600061171683836116db565b60408301905092915050565b6000602082019050919050565b600061173a82611685565b6117448185611690565b935061174f836116a1565b8060005b83811015611780578151611767888261170a565b975061177283611722565b925050600181019050611753565b5085935050505092915050565b600060208201905081810360008301526117a7818461172f565b905092915050565b600080604083850312156117c6576117c56113d8565b5b60006117d485828601611403565b92505060206117e585828601611403565b9150509250929050565b6117f8816115da565b82525050565b611807816116c0565b82525050565b600060408201905061182260008301856117ef565b61182f60208301846117fe565b9392505050565b61183f816113e2565b82525050565b600081519050919050565b600082825260208201905092915050565b60005b8381101561187f578082015181840152602081019050611864565b60008484015250505050565b600061189682611845565b6118a08185611850565b93506118b0818560208601611861565b6118b981611422565b840191505092915050565b60006060820190506118d96000830186611836565b81810360208301526118eb818561188b565b90506118fa60408301846117ef565b949350505050565b6000604082019050818103600083015261191c818561172f565b905061192b60208301846117fe565b9392505050565b600081519050919050565b600082825260208201905092915050565b6000819050602082019050919050565b611967816113e2565b82525050565b600082825260208201905092915050565b600061198982611845565b611993818561196d565b93506119a3818560208601611861565b6119ac81611422565b840191505092915050565b60006060830160008301516119cf600086018261195e565b50602083015184820360208601526119e7828261197e565b91505060408301516119fc60408601826116b1565b508091505092915050565b6000611a1383836119b7565b905092915050565b6000602082019050919050565b6000611a3382611932565b611a3d818561193d565b935083602082028501611a4f8561194e565b8060005b85811015611a8b5784840389528151611a6c8582611a07565b9450611a7783611a1b565b925060208a01995050600181019050611a53565b50829750879550505050505092915050565b60006020820190508181036000830152611ab78184611a28565b905092915050565b6000606083016000830151611ad7600086018261195e565b5060208301518482036020860152611aef828261197e565b9150506040830151611b0460408601826116b1565b508091505092915050565b60006020820190508181036000830152611b298184611abf565b905092915050565b7f4e487b7100000000000000000000000000000000000000000000000000000000600052602260045260246000fd5b60006002820490506001821680611b7857607f821691505b602082108103611b8b57611b8a611b31565b5b50919050565b60008190508160005260206000209050919050565b60006020601f8301049050919050565b600082821b905092915050565b600060088302611bf37fffffffffffffffffffffffffffffffffffffffffffffffffffffffffffffffff82611bb6565b611bfd8683611bb6565b95508019841693508086168417925050509392505050565b6000819050919050565b6000611c3a611c35611c30846113e2565b611c15565b6113e2565b9050919050565b6000819050919050565b611c5483611c1f565b611c68611c6082611c41565b848454611bc3565b825550505050565b600090565b611c7d611c70565b611c88818484611c4b565b505050565b5b81811015611cac57611ca1600082611c75565b600181019050611c8e565b5050565b601f821115611cf157611cc281611b91565b611ccb84611ba6565b81016020851015611cda578190505b611cee611ce685611ba6565b830182611c8d565b50505b505050565b600082821c905092915050565b6000611d1460001984600802611cf6565b1980831691505092915050565b6000611d2d8383611d03565b9150826002028217905092915050565b611d4682611845565b67ffffffffffffffff811115611d5f57611d5e611433565b5b611d698254611b60565b611d74828285611cb0565b600060209050601f831160018114611da75760008415611d95578287015190505b611d9f8582611d21565b865550611e07565b601f198416611db586611b91565b60005b82811015611ddd57848901518255600182019150602085019450602081019050611db8565b86831015611dfa5784890151611df6601f891682611d03565b8355505b6001600288020188555050505b505050505050565b6000602082019050611e246000830184611836565b92915050565b7f4e487b7100000000000000000000000000000000000000000000000000000000600052601160045260246000fd5b6000611e64826113e2565b9150611e6f836113e2565b9250828203905081811115611e8757611e86611e2a565b5b92915050565b7f4e487b7100000000000000000000000000000000000000000000000000000000600052603260045260246000fd5b7f4e6f7420617574686f72697a656420746f2064656c6976657200000000000000600082015250565b6000611ef2601983611850565b9150611efd82611ebc565b602082019050919050565b60006020820190508181036000830152611f2181611ee5565b9050919050565b7f4e6f742064656c69766572656400000000000000000000000000000000000000600082015250565b6000611f5e600d83611850565b9150611f6982611f28565b602082019050919050565b60006020820190508181036000830152611f8d81611f51565b9050919050565b6000604082019050611fa96000830185611836565b611fb660208301846117ef565b9392505050565b7f4e6f7420746865206578706563746564206163636570746f7200000000000000600082015250565b6000611ff3601983611850565b9150611ffe82611fbd565b602082019050919050565b6000602082019050818103600083015261202281611fe6565b9050919050565b7f44656c697665727920616c726561647920616363657074656400000000000000600082015250565b600061205f601983611850565b915061206a82612029565b602082019050919050565b6000602082019050818103600083015261208e81612052565b9050919050565b60006080820190506120aa6000830187611836565b6120b760208301866117ef565b6120c460408301856117ef565b6120d160608301846117ef565b95945050505050565b60006120e5826113e2565b91507fffffffffffffffffffffffffffffffffffffffffffffffffffffffffffffffff820361211757612116611e2a565b5b60018201905091905056fea26469706673582212204aec2813947c72d708ab06536776e2aad68c382a19cb68e4f465aaae58d58da364736f6c634300081c0033",
          "opcodes": "PUSH1 0x80 PUSH1 0x40 MSTORE CALLVALUE DUP1 ISZERO PUSH1 0xF JUMPI PUSH1 0x0 DUP1 REVERT JUMPDEST POP PUSH2 0x2158 DUP1 PUSH2 0x1F PUSH1 0x0 CODECOPY PUSH1 0x0 RETURN INVALID PUSH1 0x80 PUSH1 0x40 MSTORE CALLVALUE DUP1 ISZERO PUSH2 0x10 JUMPI PUSH1 0x0 DUP1 REVERT JUMPDEST POP PUSH1 0x4 CALLDATASIZE LT PUSH2 0x93 JUMPI PUSH1 0x0 CALLDATALOAD PUSH1 0xE0 SHR DUP1 PUSH4 0x7ACC0B20 GT PUSH2 0x66 JUMPI DUP1 PUSH4 0x7ACC0B20 EQ PUSH2 0x131 JUMPI DUP1 PUSH4 0x8753367F EQ PUSH2 0x163 JUMPI DUP1 PUSH4 0x915B59A3 EQ PUSH2 0x194 JUMPI DUP1 PUSH4 0xA34E5649 EQ PUSH2 0x1B0 JUMPI DUP1 PUSH4 0xFA2F3E27 EQ PUSH2 0x1CE JUMPI PUSH2 0x93 JUMP JUMPDEST DUP1 PUSH4 0x23CD950A EQ PUSH2 0x98 JUMPI DUP1 PUSH4 0x32523012 EQ PUSH2 0xB4 JUMPI DUP1 PUSH4 0x5B12A84A EQ PUSH2 0xD0 JUMPI DUP1 PUSH4 0x60D1B93D EQ PUSH2 0x100 JUMPI JUMPDEST PUSH1 0x0 DUP1 REVERT JUMPDEST PUSH2 0xB2 PUSH1 0x4 DUP1 CALLDATASIZE SUB DUP2 ADD SWAP1 PUSH2 0xAD SWAP2 SWAP1 PUSH2 0x155E JUMP JUMPDEST PUSH2 0x1FE JUMP JUMPDEST STOP JUMPDEST PUSH2 0xCE PUSH1 0x4 DUP1 CALLDATASIZE SUB DUP2 ADD SWAP1 PUSH2 0xC9 SWAP2 SWAP1 PUSH2 0x1618 JUMP JUMPDEST PUSH2 0x3DF JUMP JUMPDEST STOP JUMPDEST PUSH2 0xEA PUSH1 0x4 DUP1 CALLDATASIZE SUB DUP2 ADD SWAP1 PUSH2 0xE5 SWAP2 SWAP1 PUSH2 0x1658 JUMP JUMPDEST PUSH2 0x675 JUMP JUMPDEST PUSH1 0x40 MLOAD PUSH2 0xF7 SWAP2 SWAP1 PUSH2 0x178D JUMP JUMPDEST PUSH1 0x40 MLOAD DUP1 SWAP2 SUB SWAP1 RETURN JUMPDEST PUSH2 0x11A PUSH1 0x4 DUP1 CALLDATASIZE SUB DUP2 ADD SWAP1 PUSH2 0x115 SWAP2 SWAP1 PUSH2 0x17AF JUMP JUMPDEST PUSH2 0x82A JUMP JUMPDEST PUSH1 0x40 MLOAD PUSH2 0x128 SWAP3 SWAP2 SWAP1 PUSH2 0x180D JUMP JUMPDEST PUSH1 0x40 MLOAD DUP1 SWAP2 SUB SWAP1 RETURN JUMPDEST PUSH2 0x14B PUSH1 0x4 DUP1 CALLDATASIZE SUB DUP2 ADD SWAP1 PUSH2 0x146 SWAP2 SWAP1 PUSH2 0x1658 JUMP JUMPDEST PUSH2 0x894 JUMP JUMPDEST PUSH1 0x40 MLOAD PUSH2 0x15A SWAP4 SWAP3 SWAP2 SWAP1 PUSH2 0x18C4 JUMP JUMPDEST PUSH1 0x40 MLOAD DUP1 SWAP2 SUB SWAP1 RETURN JUMPDEST PUSH2 0x17D PUSH1 0x4 DUP1 CALLDATASIZE SUB DUP2 ADD SWAP1 PUSH2 0x178 SWAP2 SWAP1 PUSH2 0x1658 JUMP JUMPDEST PUSH2 0x966 JUMP JUMPDEST PUSH1 0x40 MLOAD PUSH2 0x18B SWAP3 SWAP2 SWAP1 PUSH2 0x1902 JUMP JUMPDEST PUSH1 0x40 MLOAD DUP1 SWAP2 SUB SWAP1 RETURN JUMPDEST PUSH2 0x1AE PUSH1 0x4 DUP1 CALLDATASIZE SUB DUP2 ADD SWAP1 PUSH2 0x1A9 SWAP2 SWAP1 PUSH2 0x1658 JUMP JUMPDEST PUSH2 0xB5E JUMP JUMPDEST STOP JUMPDEST PUSH2 0x1B8 PUSH2 0xE14 JUMP JUMPDEST PUSH1 0x40 MLOAD PUSH2 0x1C5 SWAP2 SWAP1 PUSH2 0x1A9D JUMP JUMPDEST PUSH1 0x40 MLOAD DUP1 SWAP2 SUB SWAP1 RETURN JUMPDEST PUSH2 0x1E8 PUSH1 0x4 DUP1 CALLDATASIZE SUB DUP2 ADD SWAP1 PUSH2 0x1E3 SWAP2 SWAP1 PUSH2 0x1658 JUMP JUMPDEST PUSH2 0x1065 JUMP JUMPDEST PUSH1 0x40 MLOAD PUSH2 0x1F5 SWAP2 SWAP1 PUSH2 0x1B0F JUMP JUMPDEST PUSH1 0x40 MLOAD DUP1 SWAP2 SUB SWAP1 RETURN JUMPDEST PUSH1 0x40 MLOAD DUP1 PUSH1 0x60 ADD PUSH1 0x40 MSTORE DUP1 DUP4 DUP2 MSTORE PUSH1 0x20 ADD DUP3 DUP2 MSTORE PUSH1 0x20 ADD CALLER PUSH20 0xFFFFFFFFFFFFFFFFFFFFFFFFFFFFFFFFFFFFFFFF AND DUP2 MSTORE POP PUSH1 0x1 PUSH1 0x0 DUP5 DUP2 MSTORE PUSH1 0x20 ADD SWAP1 DUP2 MSTORE PUSH1 0x20 ADD PUSH1 0x0 KECCAK256 PUSH1 0x0 DUP3 ADD MLOAD DUP2 PUSH1 0x0 ADD SSTORE PUSH1 0x20 DUP3 ADD MLOAD DUP2 PUSH1 0x1 ADD SWAP1 DUP2 PUSH2 0x261 SWAP2 SWAP1 PUSH2 0x1D3D JUMP JUMPDEST POP PUSH1 0x40 DUP3 ADD MLOAD DUP2 PUSH1 0x2 ADD PUSH1 0x0 PUSH2 0x100 EXP DUP2 SLOAD DUP2 PUSH20 0xFFFFFFFFFFFFFFFFFFFFFFFFFFFFFFFFFFFFFFFF MUL NOT AND SWAP1 DUP4 PUSH20 0xFFFFFFFFFFFFFFFFFFFFFFFFFFFFFFFFFFFFFFFF AND MUL OR SWAP1 SSTORE POP SWAP1 POP POP PUSH1 0x2 PUSH1 0x0 DUP4 DUP2 MSTORE PUSH1 0x20 ADD SWAP1 DUP2 MSTORE PUSH1 0x20 ADD PUSH1 0x0 KECCAK256 PUSH1 0x40 MLOAD DUP1 PUSH1 0x40 ADD PUSH1 0x40 MSTORE DUP1 CALLER PUSH20 0xFFFFFFFFFFFFFFFFFFFFFFFFFFFFFFFFFFFFFFFF AND DUP2 MSTORE PUSH1 0x20 ADD PUSH1 0x1 ISZERO ISZERO DUP2 MSTORE POP SWAP1 DUP1 PUSH1 0x1 DUP2 SLOAD ADD DUP1 DUP3 SSTORE DUP1 SWAP2 POP POP PUSH1 0x1 SWAP1 SUB SWAP1 PUSH1 0x0 MSTORE PUSH1 0x20 PUSH1 0x0 KECCAK256 ADD PUSH1 0x0 SWAP1 SWAP2 SWAP1 SWAP2 SWAP1 SWAP2 POP PUSH1 0x0 DUP3 ADD MLOAD DUP2 PUSH1 0x0 ADD PUSH1 0x0 PUSH2 0x100 EXP DUP2 SLOAD DUP2 PUSH20 0xFFFFFFFFFFFFFFFFFFFFFFFFFFFFFFFFFFFFFFFF MUL NOT AND SWAP1 DUP4 PUSH20 0xFFFFFFFFFFFFFFFFFFFFFFFFFFFFFFFFFFFFFFFF AND MUL OR SWAP1 SSTORE POP PUSH1 0x20 DUP3 ADD MLOAD DUP2 PUSH1 0x0 ADD PUSH1 0x14 PUSH2 0x100 EXP DUP2 SLOAD DUP2 PUSH1 0xFF MUL NOT AND SWAP1 DUP4 ISZERO ISZERO MUL OR SWAP1 SSTORE POP POP POP PUSH1 0x0 DUP3 SWAP1 DUP1 PUSH1 0x1 DUP2 SLOAD ADD DUP1 DUP3 SSTORE DUP1 SWAP2 POP POP PUSH1 0x1 SWAP1 SUB SWAP1 PUSH1 0x0 MSTORE PUSH1 0x20 PUSH1 0x0 KECCAK256 ADD PUSH1 0x0 SWAP1 SWAP2 SWAP1 SWAP2 SWAP1 SWAP2 POP SSTORE PUSH32 0x64A55044D1F2EDDEBE1B90E8E2853E8E96931CEFADBFA0B2CEB34BEE36061941 DUP3 PUSH1 0x40 MLOAD PUSH2 0x3D3 SWAP2 SWAP1 PUSH2 0x1E0F JUMP JUMPDEST PUSH1 0x40 MLOAD DUP1 SWAP2 SUB SWAP1 LOG1 POP POP JUMP JUMPDEST CALLER PUSH20 0xFFFFFFFFFFFFFFFFFFFFFFFFFFFFFFFFFFFFFFFF AND PUSH1 0x2 PUSH1 0x0 DUP5 DUP2 MSTORE PUSH1 0x20 ADD SWAP1 DUP2 MSTORE PUSH1 0x20 ADD PUSH1 0x0 KECCAK256 PUSH1 0x1 PUSH1 0x2 PUSH1 0x0 DUP7 DUP2 MSTORE PUSH1 0x20 ADD SWAP1 DUP2 MSTORE PUSH1 0x20 ADD PUSH1 0x0 KECCAK256 DUP1 SLOAD SWAP1 POP PUSH2 0x42C SWAP2 SWAP1 PUSH2 0x1E59 JUMP JUMPDEST DUP2 SLOAD DUP2 LT PUSH2 0x43D JUMPI PUSH2 0x43C PUSH2 0x1E8D JUMP JUMPDEST JUMPDEST SWAP1 PUSH1 0x0 MSTORE PUSH1 0x20 PUSH1 0x0 KECCAK256 ADD PUSH1 0x0 ADD PUSH1 0x0 SWAP1 SLOAD SWAP1 PUSH2 0x100 EXP SWAP1 DIV PUSH20 0xFFFFFFFFFFFFFFFFFFFFFFFFFFFFFFFFFFFFFFFF AND PUSH20 0xFFFFFFFFFFFFFFFFFFFFFFFFFFFFFFFFFFFFFFFF AND EQ PUSH2 0x4C1 JUMPI PUSH1 0x40 MLOAD PUSH32 0x8C379A000000000000000000000000000000000000000000000000000000000 DUP2 MSTORE PUSH1 0x4 ADD PUSH2 0x4B8 SWAP1 PUSH2 0x1F08 JUMP JUMPDEST PUSH1 0x40 MLOAD DUP1 SWAP2 SUB SWAP1 REVERT JUMPDEST PUSH1 0x1 ISZERO ISZERO PUSH1 0x2 PUSH1 0x0 DUP5 DUP2 MSTORE PUSH1 0x20 ADD SWAP1 DUP2 MSTORE PUSH1 0x20 ADD PUSH1 0x0 KECCAK256 PUSH1 0x1 PUSH1 0x2 PUSH1 0x0 DUP7 DUP2 MSTORE PUSH1 0x20 ADD SWAP1 DUP2 MSTORE PUSH1 0x20 ADD PUSH1 0x0 KECCAK256 DUP1 SLOAD SWAP1 POP PUSH2 0x4FB SWAP2 SWAP1 PUSH2 0x1E59 JUMP JUMPDEST DUP2 SLOAD DUP2 LT PUSH2 0x50C JUMPI PUSH2 0x50B PUSH2 0x1E8D JUMP JUMPDEST JUMPDEST SWAP1 PUSH1 0x0 MSTORE PUSH1 0x20 PUSH1 0x0 KECCAK256 ADD PUSH1 0x0 ADD PUSH1 0x14 SWAP1 SLOAD SWAP1 PUSH2 0x100 EXP SWAP1 DIV PUSH1 0xFF AND ISZERO ISZERO EQ PUSH2 0x569 JUMPI PUSH1 0x40 MLOAD PUSH32 0x8C379A000000000000000000000000000000000000000000000000000000000 DUP2 MSTORE PUSH1 0x4 ADD PUSH2 0x560 SWAP1 PUSH2 0x1F74 JUMP JUMPDEST PUSH1 0x40 MLOAD DUP1 SWAP2 SUB SWAP1 REVERT JUMPDEST PUSH1 0x2 PUSH1 0x0 DUP4 DUP2 MSTORE PUSH1 0x20 ADD SWAP1 DUP2 MSTORE PUSH1 0x20 ADD PUSH1 0x0 KECCAK256 PUSH1 0x40 MLOAD DUP1 PUSH1 0x40 ADD PUSH1 0x40 MSTORE DUP1 DUP4 PUSH20 0xFFFFFFFFFFFFFFFFFFFFFFFFFFFFFFFFFFFFFFFF AND DUP2 MSTORE PUSH1 0x20 ADD PUSH1 0x0 ISZERO ISZERO DUP2 MSTORE POP SWAP1 DUP1 PUSH1 0x1 DUP2 SLOAD ADD DUP1 DUP3 SSTORE DUP1 SWAP2 POP POP PUSH1 0x1 SWAP1 SUB SWAP1 PUSH1 0x0 MSTORE PUSH1 0x20 PUSH1 0x0 KECCAK256 ADD PUSH1 0x0 SWAP1 SWAP2 SWAP1 SWAP2 SWAP1 SWAP2 POP PUSH1 0x0 DUP3 ADD MLOAD DUP2 PUSH1 0x0 ADD PUSH1 0x0 PUSH2 0x100 EXP DUP2 SLOAD DUP2 PUSH20 0xFFFFFFFFFFFFFFFFFFFFFFFFFFFFFFFFFFFFFFFF MUL NOT AND SWAP1 DUP4 PUSH20 0xFFFFFFFFFFFFFFFFFFFFFFFFFFFFFFFFFFFFFFFF AND MUL OR SWAP1 SSTORE POP PUSH1 0x20 DUP3 ADD MLOAD DUP2 PUSH1 0x0 ADD PUSH1 0x14 PUSH2 0x100 EXP DUP2 SLOAD DUP2 PUSH1 0xFF MUL NOT AND SWAP1 DUP4 ISZERO ISZERO MUL OR SWAP1 SSTORE POP POP POP PUSH32 0x14D98A680D48365F0A6C905042D9581C316790FCC5B03CCBDB7954FEAD16C420 DUP3 DUP3 PUSH1 0x40 MLOAD PUSH2 0x669 SWAP3 SWAP2 SWAP1 PUSH2 0x1F94 JUMP JUMPDEST PUSH1 0x40 MLOAD DUP1 SWAP2 SUB SWAP1 LOG1 POP POP JUMP JUMPDEST PUSH1 0x60 PUSH1 0x0 DUP1 PUSH1 0x0 SWAP1 POP JUMPDEST PUSH1 0x2 PUSH1 0x0 DUP6 DUP2 MSTORE PUSH1 0x20 ADD SWAP1 DUP2 MSTORE PUSH1 0x20 ADD PUSH1 0x0 KECCAK256 DUP1 SLOAD SWAP1 POP DUP2 LT ISZERO PUSH2 0x738 JUMPI CALLER PUSH20 0xFFFFFFFFFFFFFFFFFFFFFFFFFFFFFFFFFFFFFFFF AND PUSH1 0x2 PUSH1 0x0 DUP7 DUP2 MSTORE PUSH1 0x20 ADD SWAP1 DUP2 MSTORE PUSH1 0x20 ADD PUSH1 0x0 KECCAK256 DUP3 DUP2 SLOAD DUP2 LT PUSH2 0x6D9 JUMPI PUSH2 0x6D8 PUSH2 0x1E8D JUMP JUMPDEST JUMPDEST SWAP1 PUSH1 0x0 MSTORE PUSH1 0x20 PUSH1 0x0 KECCAK256 ADD PUSH1 0x0 ADD PUSH1 0x0 SWAP1 SLOAD SWAP1 PUSH2 0x100 EXP SWAP1 DIV PUSH20 0xFFFFFFFFFFFFFFFFFFFFFFFFFFFFFFFFFFFFFFFF AND PUSH20 0xFFFFFFFFFFFFFFFFFFFFFFFFFFFFFFFFFFFFFFFF AND SUB PUSH2 0x72B JUMPI PUSH1 0x1 SWAP2 POP PUSH2 0x738 JUMP JUMPDEST DUP1 DUP1 PUSH1 0x1 ADD SWAP2 POP POP PUSH2 0x67F JUMP JUMPDEST POP PUSH1 0x1 ISZERO ISZERO DUP2 ISZERO ISZERO SUB PUSH2 0x823 JUMPI PUSH1 0x2 PUSH1 0x0 DUP5 DUP2 MSTORE PUSH1 0x20 ADD SWAP1 DUP2 MSTORE PUSH1 0x20 ADD PUSH1 0x0 KECCAK256 DUP1 SLOAD DUP1 PUSH1 0x20 MUL PUSH1 0x20 ADD PUSH1 0x40 MLOAD SWAP1 DUP2 ADD PUSH1 0x40 MSTORE DUP1 SWAP3 SWAP2 SWAP1 DUP2 DUP2 MSTORE PUSH1 0x20 ADD PUSH1 0x0 SWAP1 JUMPDEST DUP3 DUP3 LT ISZERO PUSH2 0x817 JUMPI DUP4 DUP3 SWAP1 PUSH1 0x0 MSTORE PUSH1 0x20 PUSH1 0x0 KECCAK256 ADD PUSH1 0x40 MLOAD DUP1 PUSH1 0x40 ADD PUSH1 0x40 MSTORE SWAP1 DUP2 PUSH1 0x0 DUP3 ADD PUSH1 0x0 SWAP1 SLOAD SWAP1 PUSH2 0x100 EXP SWAP1 DIV PUSH20 0xFFFFFFFFFFFFFFFFFFFFFFFFFFFFFFFFFFFFFFFF AND PUSH20 0xFFFFFFFFFFFFFFFFFFFFFFFFFFFFFFFFFFFFFFFF AND PUSH20 0xFFFFFFFFFFFFFFFFFFFFFFFFFFFFFFFFFFFFFFFF AND DUP2 MSTORE PUSH1 0x20 ADD PUSH1 0x0 DUP3 ADD PUSH1 0x14 SWAP1 SLOAD SWAP1 PUSH2 0x100 EXP SWAP1 DIV PUSH1 0xFF AND ISZERO ISZERO ISZERO ISZERO DUP2 MSTORE POP POP DUP2 MSTORE PUSH1 0x20 ADD SWAP1 PUSH1 0x1 ADD SWAP1 PUSH2 0x778 JUMP JUMPDEST POP POP POP POP SWAP2 POP POP PUSH2 0x825 JUMP JUMPDEST POP JUMPDEST SWAP2 SWAP1 POP JUMP JUMPDEST PUSH1 0x2 PUSH1 0x20 MSTORE DUP2 PUSH1 0x0 MSTORE PUSH1 0x40 PUSH1 0x0 KECCAK256 DUP2 DUP2 SLOAD DUP2 LT PUSH2 0x846 JUMPI PUSH1 0x0 DUP1 REVERT JUMPDEST SWAP1 PUSH1 0x0 MSTORE PUSH1 0x20 PUSH1 0x0 KECCAK256 ADD PUSH1 0x0 SWAP2 POP SWAP2 POP POP DUP1 PUSH1 0x0 ADD PUSH1 0x0 SWAP1 SLOAD SWAP1 PUSH2 0x100 EXP SWAP1 DIV PUSH20 0xFFFFFFFFFFFFFFFFFFFFFFFFFFFFFFFFFFFFFFFF AND SWAP1 DUP1 PUSH1 0x0 ADD PUSH1 0x14 SWAP1 SLOAD SWAP1 PUSH2 0x100 EXP SWAP1 DIV PUSH1 0xFF AND SWAP1 POP DUP3 JUMP JUMPDEST PUSH1 0x1 PUSH1 0x20 MSTORE DUP1 PUSH1 0x0 MSTORE PUSH1 0x40 PUSH1 0x0 KECCAK256 PUSH1 0x0 SWAP2 POP SWAP1 POP DUP1 PUSH1 0x0 ADD SLOAD SWAP1 DUP1 PUSH1 0x1 ADD DUP1 SLOAD PUSH2 0x8BD SWAP1 PUSH2 0x1B60 JUMP JUMPDEST DUP1 PUSH1 0x1F ADD PUSH1 0x20 DUP1 SWAP2 DIV MUL PUSH1 0x20 ADD PUSH1 0x40 MLOAD SWAP1 DUP2 ADD PUSH1 0x40 MSTORE DUP1 SWAP3 SWAP2 SWAP1 DUP2 DUP2 MSTORE PUSH1 0x20 ADD DUP3 DUP1 SLOAD PUSH2 0x8E9 SWAP1 PUSH2 0x1B60 JUMP JUMPDEST DUP1 ISZERO PUSH2 0x936 JUMPI DUP1 PUSH1 0x1F LT PUSH2 0x90B JUMPI PUSH2 0x100 DUP1 DUP4 SLOAD DIV MUL DUP4 MSTORE SWAP2 PUSH1 0x20 ADD SWAP2 PUSH2 0x936 JUMP JUMPDEST DUP3 ADD SWAP2 SWAP1 PUSH1 0x0 MSTORE PUSH1 0x20 PUSH1 0x0 KECCAK256 SWAP1 JUMPDEST DUP2 SLOAD DUP2 MSTORE SWAP1 PUSH1 0x1 ADD SWAP1 PUSH1 0x20 ADD DUP1 DUP4 GT PUSH2 0x919 JUMPI DUP3 SWAP1 SUB PUSH1 0x1F AND DUP3 ADD SWAP2 JUMPDEST POP POP POP POP POP SWAP1 DUP1 PUSH1 0x2 ADD PUSH1 0x0 SWAP1 SLOAD SWAP1 PUSH2 0x100 EXP SWAP1 DIV PUSH20 0xFFFFFFFFFFFFFFFFFFFFFFFFFFFFFFFFFFFFFFFF AND SWAP1 POP DUP4 JUMP JUMPDEST PUSH1 0x60 PUSH1 0x0 DUP1 PUSH1 0x0 JUMPDEST PUSH1 0x2 PUSH1 0x0 DUP7 DUP2 MSTORE PUSH1 0x20 ADD SWAP1 DUP2 MSTORE PUSH1 0x20 ADD PUSH1 0x0 KECCAK256 DUP1 SLOAD SWAP1 POP DUP2 LT ISZERO PUSH2 0xA79 JUMPI PUSH1 0x0 PUSH20 0xFFFFFFFFFFFFFFFFFFFFFFFFFFFFFFFFFFFFFFFF AND PUSH1 0x2 PUSH1 0x0 DUP8 DUP2 MSTORE PUSH1 0x20 ADD SWAP1 DUP2 MSTORE PUSH1 0x20 ADD PUSH1 0x0 KECCAK256 DUP3 DUP2 SLOAD DUP2 LT PUSH2 0x9C9 JUMPI PUSH2 0x9C8 PUSH2 0x1E8D JUMP JUMPDEST JUMPDEST SWAP1 PUSH1 0x0 MSTORE PUSH1 0x20 PUSH1 0x0 KECCAK256 ADD PUSH1 0x0 ADD PUSH1 0x0 SWAP1 SLOAD SWAP1 PUSH2 0x100 EXP SWAP1 DIV PUSH20 0xFFFFFFFFFFFFFFFFFFFFFFFFFFFFFFFFFFFFFFFF AND PUSH20 0xFFFFFFFFFFFFFFFFFFFFFFFFFFFFFFFFFFFFFFFF AND EQ ISZERO DUP1 ISZERO PUSH2 0xA5E JUMPI POP PUSH1 0x1 ISZERO ISZERO PUSH1 0x2 PUSH1 0x0 DUP8 DUP2 MSTORE PUSH1 0x20 ADD SWAP1 DUP2 MSTORE PUSH1 0x20 ADD PUSH1 0x0 KECCAK256 DUP3 DUP2 SLOAD DUP2 LT PUSH2 0xA3F JUMPI PUSH2 0xA3E PUSH2 0x1E8D JUMP JUMPDEST JUMPDEST SWAP1 PUSH1 0x0 MSTORE PUSH1 0x20 PUSH1 0x0 KECCAK256 ADD PUSH1 0x0 ADD PUSH1 0x14 SWAP1 SLOAD SWAP1 PUSH2 0x100 EXP SWAP1 DIV PUSH1 0xFF AND ISZERO ISZERO EQ JUMPDEST ISZERO PUSH2 0xA6C JUMPI PUSH1 0x1 SWAP2 POP PUSH2 0xA79 JUMP JUMPDEST DUP1 DUP1 PUSH1 0x1 ADD SWAP2 POP POP PUSH2 0x96E JUMP JUMPDEST POP PUSH1 0x2 PUSH1 0x0 DUP6 DUP2 MSTORE PUSH1 0x20 ADD SWAP1 DUP2 MSTORE PUSH1 0x20 ADD PUSH1 0x0 KECCAK256 DUP2 DUP2 DUP1 SLOAD DUP1 PUSH1 0x20 MUL PUSH1 0x20 ADD PUSH1 0x40 MLOAD SWAP1 DUP2 ADD PUSH1 0x40 MSTORE DUP1 SWAP3 SWAP2 SWAP1 DUP2 DUP2 MSTORE PUSH1 0x20 ADD PUSH1 0x0 SWAP1 JUMPDEST DUP3 DUP3 LT ISZERO PUSH2 0xB4E JUMPI DUP4 DUP3 SWAP1 PUSH1 0x0 MSTORE PUSH1 0x20 PUSH1 0x0 KECCAK256 ADD PUSH1 0x40 MLOAD DUP1 PUSH1 0x40 ADD PUSH1 0x40 MSTORE SWAP1 DUP2 PUSH1 0x0 DUP3 ADD PUSH1 0x0 SWAP1 SLOAD SWAP1 PUSH2 0x100 EXP SWAP1 DIV PUSH20 0xFFFFFFFFFFFFFFFFFFFFFFFFFFFFFFFFFFFFFFFF AND PUSH20 0xFFFFFFFFFFFFFFFFFFFFFFFFFFFFFFFFFFFFFFFF AND PUSH20 0xFFFFFFFFFFFFFFFFFFFFFFFFFFFFFFFFFFFFFFFF AND DUP2 MSTORE PUSH1 0x20 ADD PUSH1 0x0 DUP3 ADD PUSH1 0x14 SWAP1 SLOAD SWAP1 PUSH2 0x100 EXP SWAP1 DIV PUSH1 0xFF AND ISZERO ISZERO ISZERO ISZERO DUP2 MSTORE POP POP DUP2 MSTORE PUSH1 0x20 ADD SWAP1 PUSH1 0x1 ADD SWAP1 PUSH2 0xAAF JUMP JUMPDEST POP POP POP POP SWAP2 POP SWAP3 POP SWAP3 POP POP SWAP2 POP SWAP2 JUMP JUMPDEST PUSH1 0x0 PUSH1 0x1 PUSH1 0x2 PUSH1 0x0 DUP5 DUP2 MSTORE PUSH1 0x20 ADD SWAP1 DUP2 MSTORE PUSH1 0x20 ADD PUSH1 0x0 KECCAK256 DUP1 SLOAD SWAP1 POP PUSH2 0xB83 SWAP2 SWAP1 PUSH2 0x1E59 JUMP JUMPDEST SWAP1 POP CALLER PUSH20 0xFFFFFFFFFFFFFFFFFFFFFFFFFFFFFFFFFFFFFFFF AND PUSH1 0x2 PUSH1 0x0 DUP5 DUP2 MSTORE PUSH1 0x20 ADD SWAP1 DUP2 MSTORE PUSH1 0x20 ADD PUSH1 0x0 KECCAK256 DUP3 DUP2 SLOAD DUP2 LT PUSH2 0xBC1 JUMPI PUSH2 0xBC0 PUSH2 0x1E8D JUMP JUMPDEST JUMPDEST SWAP1 PUSH1 0x0 MSTORE PUSH1 0x20 PUSH1 0x0 KECCAK256 ADD PUSH1 0x0 ADD PUSH1 0x0 SWAP1 SLOAD SWAP1 PUSH2 0x100 EXP SWAP1 DIV PUSH20 0xFFFFFFFFFFFFFFFFFFFFFFFFFFFFFFFFFFFFFFFF AND PUSH20 0xFFFFFFFFFFFFFFFFFFFFFFFFFFFFFFFFFFFFFFFF AND EQ PUSH2 0xC45 JUMPI PUSH1 0x40 MLOAD PUSH32 0x8C379A000000000000000000000000000000000000000000000000000000000 DUP2 MSTORE PUSH1 0x4 ADD PUSH2 0xC3C SWAP1 PUSH2 0x2009 JUMP JUMPDEST PUSH1 0x40 MLOAD DUP1 SWAP2 SUB SWAP1 REVERT JUMPDEST PUSH1 0x0 ISZERO ISZERO PUSH1 0x2 PUSH1 0x0 DUP5 DUP2 MSTORE PUSH1 0x20 ADD SWAP1 DUP2 MSTORE PUSH1 0x20 ADD PUSH1 0x0 KECCAK256 DUP3 DUP2 SLOAD DUP2 LT PUSH2 0xC6E JUMPI PUSH2 0xC6D PUSH2 0x1E8D JUMP JUMPDEST JUMPDEST SWAP1 PUSH1 0x0 MSTORE PUSH1 0x20 PUSH1 0x0 KECCAK256 ADD PUSH1 0x0 ADD PUSH1 0x14 SWAP1 SLOAD SWAP1 PUSH2 0x100 EXP SWAP1 DIV PUSH1 0xFF AND ISZERO ISZERO EQ PUSH2 0xCCB JUMPI PUSH1 0x40 MLOAD PUSH32 0x8C379A000000000000000000000000000000000000000000000000000000000 DUP2 MSTORE PUSH1 0x4 ADD PUSH2 0xCC2 SWAP1 PUSH2 0x2075 JUMP JUMPDEST PUSH1 0x40 MLOAD DUP1 SWAP2 SUB SWAP1 REVERT JUMPDEST PUSH1 0x1 PUSH1 0x2 PUSH1 0x0 DUP5 DUP2 MSTORE PUSH1 0x20 ADD SWAP1 DUP2 MSTORE PUSH1 0x20 ADD PUSH1 0x0 KECCAK256 DUP3 DUP2 SLOAD DUP2 LT PUSH2 0xCF2 JUMPI PUSH2 0xCF1 PUSH2 0x1E8D JUMP JUMPDEST JUMPDEST SWAP1 PUSH1 0x0 MSTORE PUSH1 0x20 PUSH1 0x0 KECCAK256 ADD PUSH1 0x0 ADD PUSH1 0x14 PUSH2 0x100 EXP DUP2 SLOAD DUP2 PUSH1 0xFF MUL NOT AND SWAP1 DUP4 ISZERO ISZERO MUL OR SWAP1 SSTORE POP PUSH1 0x0 PUSH1 0x2 PUSH1 0x0 DUP5 DUP2 MSTORE PUSH1 0x20 ADD SWAP1 DUP2 MSTORE PUSH1 0x20 ADD PUSH1 0x0 KECCAK256 PUSH1 0x1 DUP4 PUSH2 0xD38 SWAP2 SWAP1 PUSH2 0x1E59 JUMP JUMPDEST DUP2 SLOAD DUP2 LT PUSH2 0xD49 JUMPI PUSH2 0xD48 PUSH2 0x1E8D JUMP JUMPDEST JUMPDEST SWAP1 PUSH1 0x0 MSTORE PUSH1 0x20 PUSH1 0x0 KECCAK256 ADD PUSH1 0x0 ADD PUSH1 0x0 SWAP1 SLOAD SWAP1 PUSH2 0x100 EXP SWAP1 DIV PUSH20 0xFFFFFFFFFFFFFFFFFFFFFFFFFFFFFFFFFFFFFFFF AND SWAP1 POP PUSH1 0x0 PUSH1 0x2 PUSH1 0x0 DUP6 DUP2 MSTORE PUSH1 0x20 ADD SWAP1 DUP2 MSTORE PUSH1 0x20 ADD PUSH1 0x0 KECCAK256 PUSH1 0x0 DUP2 SLOAD DUP2 LT PUSH2 0xDA1 JUMPI PUSH2 0xDA0 PUSH2 0x1E8D JUMP JUMPDEST JUMPDEST SWAP1 PUSH1 0x0 MSTORE PUSH1 0x20 PUSH1 0x0 KECCAK256 ADD PUSH1 0x0 ADD PUSH1 0x0 SWAP1 SLOAD SWAP1 PUSH2 0x100 EXP SWAP1 DIV PUSH20 0xFFFFFFFFFFFFFFFFFFFFFFFFFFFFFFFFFFFFFFFF AND SWAP1 POP PUSH32 0xCACB7E308B842A06026DECD9A1003D03EBCD115502C475C098B52DD4FE34C924 DUP5 CALLER DUP5 DUP5 PUSH1 0x40 MLOAD PUSH2 0xE06 SWAP5 SWAP4 SWAP3 SWAP2 SWAP1 PUSH2 0x2095 JUMP JUMPDEST PUSH1 0x40 MLOAD DUP1 SWAP2 SUB SWAP1 LOG1 POP POP POP POP JUMP JUMPDEST PUSH1 0x60 PUSH1 0x0 DUP1 JUMPDEST PUSH1 0x0 DUP1 SLOAD SWAP1 POP DUP2 LT ISZERO PUSH2 0xE75 JUMPI PUSH1 0x0 DUP1 DUP3 DUP2 SLOAD DUP2 LT PUSH2 0xE3C JUMPI PUSH2 0xE3B PUSH2 0x1E8D JUMP JUMPDEST JUMPDEST SWAP1 PUSH1 0x0 MSTORE PUSH1 0x20 PUSH1 0x0 KECCAK256 ADD SLOAD SWAP1 POP PUSH2 0xE53 DUP2 CALLER PUSH2 0x125A JUMP JUMPDEST ISZERO PUSH2 0xE67 JUMPI DUP3 DUP1 PUSH2 0xE63 SWAP1 PUSH2 0x20DA JUMP JUMPDEST SWAP4 POP POP JUMPDEST POP DUP1 DUP1 PUSH1 0x1 ADD SWAP2 POP POP PUSH2 0xE1A JUMP JUMPDEST POP PUSH1 0x0 DUP2 PUSH8 0xFFFFFFFFFFFFFFFF DUP2 GT ISZERO PUSH2 0xE92 JUMPI PUSH2 0xE91 PUSH2 0x1433 JUMP JUMPDEST JUMPDEST PUSH1 0x40 MLOAD SWAP1 DUP1 DUP3 MSTORE DUP1 PUSH1 0x20 MUL PUSH1 0x20 ADD DUP3 ADD PUSH1 0x40 MSTORE DUP1 ISZERO PUSH2 0xECB JUMPI DUP2 PUSH1 0x20 ADD JUMPDEST PUSH2 0xEB8 PUSH2 0x1397 JUMP JUMPDEST DUP2 MSTORE PUSH1 0x20 ADD SWAP1 PUSH1 0x1 SWAP1 SUB SWAP1 DUP2 PUSH2 0xEB0 JUMPI SWAP1 POP JUMPDEST POP SWAP1 POP PUSH1 0x0 DUP1 JUMPDEST PUSH1 0x0 DUP1 SLOAD SWAP1 POP DUP2 LT ISZERO PUSH2 0x105B JUMPI PUSH1 0x0 DUP1 DUP3 DUP2 SLOAD DUP2 LT PUSH2 0xEF4 JUMPI PUSH2 0xEF3 PUSH2 0x1E8D JUMP JUMPDEST JUMPDEST SWAP1 PUSH1 0x0 MSTORE PUSH1 0x20 PUSH1 0x0 KECCAK256 ADD SLOAD SWAP1 POP PUSH2 0xF0B DUP2 CALLER PUSH2 0x125A JUMP JUMPDEST ISZERO PUSH2 0x104D JUMPI PUSH1 0x1 PUSH1 0x0 DUP3 DUP2 MSTORE PUSH1 0x20 ADD SWAP1 DUP2 MSTORE PUSH1 0x20 ADD PUSH1 0x0 KECCAK256 PUSH1 0x40 MLOAD DUP1 PUSH1 0x60 ADD PUSH1 0x40 MSTORE SWAP1 DUP2 PUSH1 0x0 DUP3 ADD SLOAD DUP2 MSTORE PUSH1 0x20 ADD PUSH1 0x1 DUP3 ADD DUP1 SLOAD PUSH2 0xF48 SWAP1 PUSH2 0x1B60 JUMP JUMPDEST DUP1 PUSH1 0x1F ADD PUSH1 0x20 DUP1 SWAP2 DIV MUL PUSH1 0x20 ADD PUSH1 0x40 MLOAD SWAP1 DUP2 ADD PUSH1 0x40 MSTORE DUP1 SWAP3 SWAP2 SWAP1 DUP2 DUP2 MSTORE PUSH1 0x20 ADD DUP3 DUP1 SLOAD PUSH2 0xF74 SWAP1 PUSH2 0x1B60 JUMP JUMPDEST DUP1 ISZERO PUSH2 0xFC1 JUMPI DUP1 PUSH1 0x1F LT PUSH2 0xF96 JUMPI PUSH2 0x100 DUP1 DUP4 SLOAD DIV MUL DUP4 MSTORE SWAP2 PUSH1 0x20 ADD SWAP2 PUSH2 0xFC1 JUMP JUMPDEST DUP3 ADD SWAP2 SWAP1 PUSH1 0x0 MSTORE PUSH1 0x20 PUSH1 0x0 KECCAK256 SWAP1 JUMPDEST DUP2 SLOAD DUP2 MSTORE SWAP1 PUSH1 0x1 ADD SWAP1 PUSH1 0x20 ADD DUP1 DUP4 GT PUSH2 0xFA4 JUMPI DUP3 SWAP1 SUB PUSH1 0x1F AND DUP3 ADD SWAP2 JUMPDEST POP POP POP POP POP DUP2 MSTORE PUSH1 0x20 ADD PUSH1 0x2 DUP3 ADD PUSH1 0x0 SWAP1 SLOAD SWAP1 PUSH2 0x100 EXP SWAP1 DIV PUSH20 0xFFFFFFFFFFFFFFFFFFFFFFFFFFFFFFFFFFFFFFFF AND PUSH20 0xFFFFFFFFFFFFFFFFFFFFFFFFFFFFFFFFFFFFFFFF AND PUSH20 0xFFFFFFFFFFFFFFFFFFFFFFFFFFFFFFFFFFFFFFFF AND DUP2 MSTORE POP POP DUP5 DUP5 DUP2 MLOAD DUP2 LT PUSH2 0x1033 JUMPI PUSH2 0x1032 PUSH2 0x1E8D JUMP JUMPDEST JUMPDEST PUSH1 0x20 MUL PUSH1 0x20 ADD ADD DUP2 SWAP1 MSTORE POP DUP3 DUP1 PUSH2 0x1049 SWAP1 PUSH2 0x20DA JUMP JUMPDEST SWAP4 POP POP JUMPDEST POP DUP1 DUP1 PUSH1 0x1 ADD SWAP2 POP POP PUSH2 0xED2 JUMP JUMPDEST POP DUP2 SWAP4 POP POP POP POP SWAP1 JUMP JUMPDEST PUSH2 0x106D PUSH2 0x1397 JUMP JUMPDEST PUSH1 0x0 DUP1 PUSH1 0x0 SWAP1 POP JUMPDEST PUSH1 0x2 PUSH1 0x0 DUP6 DUP2 MSTORE PUSH1 0x20 ADD SWAP1 DUP2 MSTORE PUSH1 0x20 ADD PUSH1 0x0 KECCAK256 DUP1 SLOAD SWAP1 POP DUP2 LT ISZERO PUSH2 0x112E JUMPI CALLER PUSH20 0xFFFFFFFFFFFFFFFFFFFFFFFFFFFFFFFFFFFFFFFF AND PUSH1 0x2 PUSH1 0x0 DUP7 DUP2 MSTORE PUSH1 0x20 ADD SWAP1 DUP2 MSTORE PUSH1 0x20 ADD PUSH1 0x0 KECCAK256 DUP3 DUP2 SLOAD DUP2 LT PUSH2 0x10CF JUMPI PUSH2 0x10CE PUSH2 0x1E8D JUMP JUMPDEST JUMPDEST SWAP1 PUSH1 0x0 MSTORE PUSH1 0x20 PUSH1 0x0 KECCAK256 ADD PUSH1 0x0 ADD PUSH1 0x0 SWAP1 SLOAD SWAP1 PUSH2 0x100 EXP SWAP1 DIV PUSH20 0xFFFFFFFFFFFFFFFFFFFFFFFFFFFFFFFFFFFFFFFF AND PUSH20 0xFFFFFFFFFFFFFFFFFFFFFFFFFFFFFFFFFFFFFFFF AND SUB PUSH2 0x1121 JUMPI PUSH1 0x1 SWAP2 POP PUSH2 0x112E JUMP JUMPDEST DUP1 DUP1 PUSH1 0x1 ADD SWAP2 POP POP PUSH2 0x1075 JUMP JUMPDEST POP PUSH1 0x1 ISZERO ISZERO DUP2 ISZERO ISZERO SUB PUSH2 0x1253 JUMPI PUSH1 0x1 PUSH1 0x0 DUP5 DUP2 MSTORE PUSH1 0x20 ADD SWAP1 DUP2 MSTORE PUSH1 0x20 ADD PUSH1 0x0 KECCAK256 PUSH1 0x40 MLOAD DUP1 PUSH1 0x60 ADD PUSH1 0x40 MSTORE SWAP1 DUP2 PUSH1 0x0 DUP3 ADD SLOAD DUP2 MSTORE PUSH1 0x20 ADD PUSH1 0x1 DUP3 ADD DUP1 SLOAD PUSH2 0x1173 SWAP1 PUSH2 0x1B60 JUMP JUMPDEST DUP1 PUSH1 0x1F ADD PUSH1 0x20 DUP1 SWAP2 DIV MUL PUSH1 0x20 ADD PUSH1 0x40 MLOAD SWAP1 DUP2 ADD PUSH1 0x40 MSTORE DUP1 SWAP3 SWAP2 SWAP1 DUP2 DUP2 MSTORE PUSH1 0x20 ADD DUP3 DUP1 SLOAD PUSH2 0x119F SWAP1 PUSH2 0x1B60 JUMP JUMPDEST DUP1 ISZERO PUSH2 0x11EC JUMPI DUP1 PUSH1 0x1F LT PUSH2 0x11C1 JUMPI PUSH2 0x100 DUP1 DUP4 SLOAD DIV MUL DUP4 MSTORE SWAP2 PUSH1 0x20 ADD SWAP2 PUSH2 0x11EC JUMP JUMPDEST DUP3 ADD SWAP2 SWAP1 PUSH1 0x0 MSTORE PUSH1 0x20 PUSH1 0x0 KECCAK256 SWAP1 JUMPDEST DUP2 SLOAD DUP2 MSTORE SWAP1 PUSH1 0x1 ADD SWAP1 PUSH1 0x20 ADD DUP1 DUP4 GT PUSH2 0x11CF JUMPI DUP3 SWAP1 SUB PUSH1 0x1F AND DUP3 ADD SWAP2 JUMPDEST POP POP POP POP POP DUP2 MSTORE PUSH1 0x20 ADD PUSH1 0x2 DUP3 ADD PUSH1 0x0 SWAP1 SLOAD SWAP1 PUSH2 0x100 EXP SWAP1 DIV PUSH20 0xFFFFFFFFFFFFFFFFFFFFFFFFFFFFFFFFFFFFFFFF AND PUSH20 0xFFFFFFFFFFFFFFFFFFFFFFFFFFFFFFFFFFFFFFFF AND PUSH20 0xFFFFFFFFFFFFFFFFFFFFFFFFFFFFFFFFFFFFFFFF AND DUP2 MSTORE POP POP SWAP2 POP POP PUSH2 0x1255 JUMP JUMPDEST POP JUMPDEST SWAP2 SWAP1 POP JUMP JUMPDEST PUSH1 0x0 DUP2 PUSH20 0xFFFFFFFFFFFFFFFFFFFFFFFFFFFFFFFFFFFFFFFF AND PUSH1 0x1 PUSH1 0x0 DUP6 DUP2 MSTORE PUSH1 0x20 ADD SWAP1 DUP2 MSTORE PUSH1 0x20 ADD PUSH1 0x0 KECCAK256 PUSH1 0x2 ADD PUSH1 0x0 SWAP1 SLOAD SWAP1 PUSH2 0x100 EXP SWAP1 DIV PUSH20 0xFFFFFFFFFFFFFFFFFFFFFFFFFFFFFFFFFFFFFFFF AND PUSH20 0xFFFFFFFFFFFFFFFFFFFFFFFFFFFFFFFFFFFFFFFF AND SUB PUSH2 0x12CE JUMPI PUSH1 0x1 SWAP1 POP PUSH2 0x1391 JUMP JUMPDEST PUSH1 0x0 JUMPDEST PUSH1 0x2 PUSH1 0x0 DUP6 DUP2 MSTORE PUSH1 0x20 ADD SWAP1 DUP2 MSTORE PUSH1 0x20 ADD PUSH1 0x0 KECCAK256 DUP1 SLOAD SWAP1 POP DUP2 LT ISZERO PUSH2 0x138B JUMPI DUP3 PUSH20 0xFFFFFFFFFFFFFFFFFFFFFFFFFFFFFFFFFFFFFFFF AND PUSH1 0x2 PUSH1 0x0 DUP7 DUP2 MSTORE PUSH1 0x20 ADD SWAP1 DUP2 MSTORE PUSH1 0x20 ADD PUSH1 0x0 KECCAK256 DUP3 DUP2 SLOAD DUP2 LT PUSH2 0x132B JUMPI PUSH2 0x132A PUSH2 0x1E8D JUMP JUMPDEST JUMPDEST SWAP1 PUSH1 0x0 MSTORE PUSH1 0x20 PUSH1 0x0 KECCAK256 ADD PUSH1 0x0 ADD PUSH1 0x0 SWAP1 SLOAD SWAP1 PUSH2 0x100 EXP SWAP1 DIV PUSH20 0xFFFFFFFFFFFFFFFFFFFFFFFFFFFFFFFFFFFFFFFF AND PUSH20 0xFFFFFFFFFFFFFFFFFFFFFFFFFFFFFFFFFFFFFFFF AND SUB PUSH2 0x137E JUMPI PUSH1 0x1 SWAP2 POP POP PUSH2 0x1391 JUMP JUMPDEST DUP1 DUP1 PUSH1 0x1 ADD SWAP2 POP POP PUSH2 0x12D1 JUMP JUMPDEST POP PUSH1 0x0 SWAP1 POP JUMPDEST SWAP3 SWAP2 POP POP JUMP JUMPDEST PUSH1 0x40 MLOAD DUP1 PUSH1 0x60 ADD PUSH1 0x40 MSTORE DUP1 PUSH1 0x0 DUP2 MSTORE PUSH1 0x20 ADD PUSH1 0x60 DUP2 MSTORE PUSH1 0x20 ADD PUSH1 0x0 PUSH20 0xFFFFFFFFFFFFFFFFFFFFFFFFFFFFFFFFFFFFFFFF AND DUP2 MSTORE POP SWAP1 JUMP JUMPDEST PUSH1 0x0 PUSH1 0x40 MLOAD SWAP1 POP SWAP1 JUMP JUMPDEST PUSH1 0x0 DUP1 REVERT JUMPDEST PUSH1 0x0 DUP1 REVERT JUMPDEST PUSH1 0x0 DUP2 SWAP1 POP SWAP2 SWAP1 POP JUMP JUMPDEST PUSH2 0x13F5 DUP2 PUSH2 0x13E2 JUMP JUMPDEST DUP2 EQ PUSH2 0x1400 JUMPI PUSH1 0x0 DUP1 REVERT JUMPDEST POP JUMP JUMPDEST PUSH1 0x0 DUP2 CALLDATALOAD SWAP1 POP PUSH2 0x1412 DUP2 PUSH2 0x13EC JUMP JUMPDEST SWAP3 SWAP2 POP POP JUMP JUMPDEST PUSH1 0x0 DUP1 REVERT JUMPDEST PUSH1 0x0 DUP1 REVERT JUMPDEST PUSH1 0x0 PUSH1 0x1F NOT PUSH1 0x1F DUP4 ADD AND SWAP1 POP SWAP2 SWAP1 POP JUMP JUMPDEST PUSH32 0x4E487B7100000000000000000000000000000000000000000000000000000000 PUSH1 0x0 MSTORE PUSH1 0x41 PUSH1 0x4 MSTORE PUSH1 0x24 PUSH1 0x0 REVERT JUMPDEST PUSH2 0x146B DUP3 PUSH2 0x1422 JUMP JUMPDEST DUP2 ADD DUP2 DUP2 LT PUSH8 0xFFFFFFFFFFFFFFFF DUP3 GT OR ISZERO PUSH2 0x148A JUMPI PUSH2 0x1489 PUSH2 0x1433 JUMP JUMPDEST JUMPDEST DUP1 PUSH1 0x40 MSTORE POP POP POP JUMP JUMPDEST PUSH1 0x0 PUSH2 0x149D PUSH2 0x13CE JUMP JUMPDEST SWAP1 POP PUSH2 0x14A9 DUP3 DUP3 PUSH2 0x1462 JUMP JUMPDEST SWAP2 SWAP1 POP JUMP JUMPDEST PUSH1 0x0 PUSH8 0xFFFFFFFFFFFFFFFF DUP3 GT ISZERO PUSH2 0x14C9 JUMPI PUSH2 0x14C8 PUSH2 0x1433 JUMP JUMPDEST JUMPDEST PUSH2 0x14D2 DUP3 PUSH2 0x1422 JUMP JUMPDEST SWAP1 POP PUSH1 0x20 DUP2 ADD SWAP1 POP SWAP2 SWAP1 POP JUMP JUMPDEST DUP3 DUP2 DUP4 CALLDATACOPY PUSH1 0x0 DUP4 DUP4 ADD MSTORE POP POP POP JUMP JUMPDEST PUSH1 0x0 PUSH2 0x1501 PUSH2 0x14FC DUP5 PUSH2 0x14AE JUMP JUMPDEST PUSH2 0x1493 JUMP JUMPDEST SWAP1 POP DUP3 DUP2 MSTORE PUSH1 0x20 DUP2 ADD DUP5 DUP5 DUP5 ADD GT ISZERO PUSH2 0x151D JUMPI PUSH2 0x151C PUSH2 0x141D JUMP JUMPDEST JUMPDEST PUSH2 0x1528 DUP5 DUP3 DUP6 PUSH2 0x14DF JUMP JUMPDEST POP SWAP4 SWAP3 POP POP POP JUMP JUMPDEST PUSH1 0x0 DUP3 PUSH1 0x1F DUP4 ADD SLT PUSH2 0x1545 JUMPI PUSH2 0x1544 PUSH2 0x1418 JUMP JUMPDEST JUMPDEST DUP2 CALLDATALOAD PUSH2 0x1555 DUP5 DUP3 PUSH1 0x20 DUP7 ADD PUSH2 0x14EE JUMP JUMPDEST SWAP2 POP POP SWAP3 SWAP2 POP POP JUMP JUMPDEST PUSH1 0x0 DUP1 PUSH1 0x40 DUP4 DUP6 SUB SLT ISZERO PUSH2 0x1575 JUMPI PUSH2 0x1574 PUSH2 0x13D8 JUMP JUMPDEST JUMPDEST PUSH1 0x0 PUSH2 0x1583 DUP6 DUP3 DUP7 ADD PUSH2 0x1403 JUMP JUMPDEST SWAP3 POP POP PUSH1 0x20 DUP4 ADD CALLDATALOAD PUSH8 0xFFFFFFFFFFFFFFFF DUP2 GT ISZERO PUSH2 0x15A4 JUMPI PUSH2 0x15A3 PUSH2 0x13DD JUMP JUMPDEST JUMPDEST PUSH2 0x15B0 DUP6 DUP3 DUP7 ADD PUSH2 0x1530 JUMP JUMPDEST SWAP2 POP POP SWAP3 POP SWAP3 SWAP1 POP JUMP JUMPDEST PUSH1 0x0 PUSH20 0xFFFFFFFFFFFFFFFFFFFFFFFFFFFFFFFFFFFFFFFF DUP3 AND SWAP1 POP SWAP2 SWAP1 POP JUMP JUMPDEST PUSH1 0x0 PUSH2 0x15E5 DUP3 PUSH2 0x15BA JUMP JUMPDEST SWAP1 POP SWAP2 SWAP1 POP JUMP JUMPDEST PUSH2 0x15F5 DUP2 PUSH2 0x15DA JUMP JUMPDEST DUP2 EQ PUSH2 0x1600 JUMPI PUSH1 0x0 DUP1 REVERT JUMPDEST POP JUMP JUMPDEST PUSH1 0x0 DUP2 CALLDATALOAD SWAP1 POP PUSH2 0x1612 DUP2 PUSH2 0x15EC JUMP JUMPDEST SWAP3 SWAP2 POP POP JUMP JUMPDEST PUSH1 0x0 DUP1 PUSH1 0x40 DUP4 DUP6 SUB SLT ISZERO PUSH2 0x162F JUMPI PUSH2 0x162E PUSH2 0x13D8 JUMP JUMPDEST JUMPDEST PUSH1 0x0 PUSH2 0x163D DUP6 DUP3 DUP7 ADD PUSH2 0x1403 JUMP JUMPDEST SWAP3 POP POP PUSH1 0x20 PUSH2 0x164E DUP6 DUP3 DUP7 ADD PUSH2 0x1603 JUMP JUMPDEST SWAP2 POP POP SWAP3 POP SWAP3 SWAP1 POP JUMP JUMPDEST PUSH1 0x0 PUSH1 0x20 DUP3 DUP5 SUB SLT ISZERO PUSH2 0x166E JUMPI PUSH2 0x166D PUSH2 0x13D8 JUMP JUMPDEST JUMPDEST PUSH1 0x0 PUSH2 0x167C DUP5 DUP3 DUP6 ADD PUSH2 0x1403 JUMP JUMPDEST SWAP2 POP POP SWAP3 SWAP2 POP POP JUMP JUMPDEST PUSH1 0x0 DUP2 MLOAD SWAP1 POP SWAP2 SWAP1 POP JUMP JUMPDEST PUSH1 0x0 DUP3 DUP3 MSTORE PUSH1 0x20 DUP3 ADD SWAP1 POP SWAP3 SWAP2 POP POP JUMP JUMPDEST PUSH1 0x0 DUP2 SWAP1 POP PUSH1 0x20 DUP3 ADD SWAP1 POP SWAP2 SWAP1 POP JUMP JUMPDEST PUSH2 0x16BA DUP2 PUSH2 0x15DA JUMP JUMPDEST DUP3 MSTORE POP POP JUMP JUMPDEST PUSH1 0x0 DUP2 ISZERO ISZERO SWAP1 POP SWAP2 SWAP1 POP JUMP JUMPDEST PUSH2 0x16D5 DUP2 PUSH2 0x16C0 JUMP JUMPDEST DUP3 MSTORE POP POP JUMP JUMPDEST PUSH1 0x40 DUP3 ADD PUSH1 0x0 DUP3 ADD MLOAD PUSH2 0x16F1 PUSH1 0x0 DUP6 ADD DUP3 PUSH2 0x16B1 JUMP JUMPDEST POP PUSH1 0x20 DUP3 ADD MLOAD PUSH2 0x1704 PUSH1 0x20 DUP6 ADD DUP3 PUSH2 0x16CC JUMP JUMPDEST POP POP POP POP JUMP JUMPDEST PUSH1 0x0 PUSH2 0x1716 DUP4 DUP4 PUSH2 0x16DB JUMP JUMPDEST PUSH1 0x40 DUP4 ADD SWAP1 POP SWAP3 SWAP2 POP POP JUMP JUMPDEST PUSH1 0x0 PUSH1 0x20 DUP3 ADD SWAP1 POP SWAP2 SWAP1 POP JUMP JUMPDEST PUSH1 0x0 PUSH2 0x173A DUP3 PUSH2 0x1685 JUMP JUMPDEST PUSH2 0x1744 DUP2 DUP6 PUSH2 0x1690 JUMP JUMPDEST SWAP4 POP PUSH2 0x174F DUP4 PUSH2 0x16A1 JUMP JUMPDEST DUP1 PUSH1 0x0 JUMPDEST DUP4 DUP2 LT ISZERO PUSH2 0x1780 JUMPI DUP2 MLOAD PUSH2 0x1767 DUP9 DUP3 PUSH2 0x170A JUMP JUMPDEST SWAP8 POP PUSH2 0x1772 DUP4 PUSH2 0x1722 JUMP JUMPDEST SWAP3 POP POP PUSH1 0x1 DUP2 ADD SWAP1 POP PUSH2 0x1753 JUMP JUMPDEST POP DUP6 SWAP4 POP POP POP POP SWAP3 SWAP2 POP POP JUMP JUMPDEST PUSH1 0x0 PUSH1 0x20 DUP3 ADD SWAP1 POP DUP2 DUP2 SUB PUSH1 0x0 DUP4 ADD MSTORE PUSH2 0x17A7 DUP2 DUP5 PUSH2 0x172F JUMP JUMPDEST SWAP1 POP SWAP3 SWAP2 POP POP JUMP JUMPDEST PUSH1 0x0 DUP1 PUSH1 0x40 DUP4 DUP6 SUB SLT ISZERO PUSH2 0x17C6 JUMPI PUSH2 0x17C5 PUSH2 0x13D8 JUMP JUMPDEST JUMPDEST PUSH1 0x0 PUSH2 0x17D4 DUP6 DUP3 DUP7 ADD PUSH2 0x1403 JUMP JUMPDEST SWAP3 POP POP PUSH1 0x20 PUSH2 0x17E5 DUP6 DUP3 DUP7 ADD PUSH2 0x1403 JUMP JUMPDEST SWAP2 POP POP SWAP3 POP SWAP3 SWAP1 POP JUMP JUMPDEST PUSH2 0x17F8 DUP2 PUSH2 0x15DA JUMP JUMPDEST DUP3 MSTORE POP POP JUMP JUMPDEST PUSH2 0x1807 DUP2 PUSH2 0x16C0 JUMP JUMPDEST DUP3 MSTORE POP POP JUMP JUMPDEST PUSH1 0x0 PUSH1 0x40 DUP3 ADD SWAP1 POP PUSH2 0x1822 PUSH1 0x0 DUP4 ADD DUP6 PUSH2 0x17EF JUMP JUMPDEST PUSH2 0x182F PUSH1 0x20 DUP4 ADD DUP5 PUSH2 0x17FE JUMP JUMPDEST SWAP4 SWAP3 POP POP POP JUMP JUMPDEST PUSH2 0x183F DUP2 PUSH2 0x13E2 JUMP JUMPDEST DUP3 MSTORE POP POP JUMP JUMPDEST PUSH1 0x0 DUP2 MLOAD SWAP1 POP SWAP2 SWAP1 POP JUMP JUMPDEST PUSH1 0x0 DUP3 DUP3 MSTORE PUSH1 0x20 DUP3 ADD SWAP1 POP SWAP3 SWAP2 POP POP JUMP JUMPDEST PUSH1 0x0 JUMPDEST DUP4 DUP2 LT ISZERO PUSH2 0x187F JUMPI DUP1 DUP3 ADD MLOAD DUP2 DUP5 ADD MSTORE PUSH1 0x20 DUP2 ADD SWAP1 POP PUSH2 0x1864 JUMP JUMPDEST PUSH1 0x0 DUP5 DUP5 ADD MSTORE POP POP POP POP JUMP JUMPDEST PUSH1 0x0 PUSH2 0x1896 DUP3 PUSH2 0x1845 JUMP JUMPDEST PUSH2 0x18A0 DUP2 DUP6 PUSH2 0x1850 JUMP JUMPDEST SWAP4 POP PUSH2 0x18B0 DUP2 DUP6 PUSH1 0x20 DUP7 ADD PUSH2 0x1861 JUMP JUMPDEST PUSH2 0x18B9 DUP2 PUSH2 0x1422 JUMP JUMPDEST DUP5 ADD SWAP2 POP POP SWAP3 SWAP2 POP POP JUMP JUMPDEST PUSH1 0x0 PUSH1 0x60 DUP3 ADD SWAP1 POP PUSH2 0x18D9 PUSH1 0x0 DUP4 ADD DUP7 PUSH2 0x1836 JUMP JUMPDEST DUP2 DUP2 SUB PUSH1 0x20 DUP4 ADD MSTORE PUSH2 0x18EB DUP2 DUP6 PUSH2 0x188B JUMP JUMPDEST SWAP1 POP PUSH2 0x18FA PUSH1 0x40 DUP4 ADD DUP5 PUSH2 0x17EF JUMP JUMPDEST SWAP5 SWAP4 POP POP POP POP JUMP JUMPDEST PUSH1 0x0 PUSH1 0x40 DUP3 ADD SWAP1 POP DUP2 DUP2 SUB PUSH1 0x0 DUP4 ADD MSTORE PUSH2 0x191C DUP2 DUP6 PUSH2 0x172F JUMP JUMPDEST SWAP1 POP PUSH2 0x192B PUSH1 0x20 DUP4 ADD DUP5 PUSH2 0x17FE JUMP JUMPDEST SWAP4 SWAP3 POP POP POP JUMP JUMPDEST PUSH1 0x0 DUP2 MLOAD SWAP1 POP SWAP2 SWAP1 POP JUMP JUMPDEST PUSH1 0x0 DUP3 DUP3 MSTORE PUSH1 0x20 DUP3 ADD SWAP1 POP SWAP3 SWAP2 POP POP JUMP JUMPDEST PUSH1 0x0 DUP2 SWAP1 POP PUSH1 0x20 DUP3 ADD SWAP1 POP SWAP2 SWAP1 POP JUMP JUMPDEST PUSH2 0x1967 DUP2 PUSH2 0x13E2 JUMP JUMPDEST DUP3 MSTORE POP POP JUMP JUMPDEST PUSH1 0x0 DUP3 DUP3 MSTORE PUSH1 0x20 DUP3 ADD SWAP1 POP SWAP3 SWAP2 POP POP JUMP JUMPDEST PUSH1 0x0 PUSH2 0x1989 DUP3 PUSH2 0x1845 JUMP JUMPDEST PUSH2 0x1993 DUP2 DUP6 PUSH2 0x196D JUMP JUMPDEST SWAP4 POP PUSH2 0x19A3 DUP2 DUP6 PUSH1 0x20 DUP7 ADD PUSH2 0x1861 JUMP JUMPDEST PUSH2 0x19AC DUP2 PUSH2 0x1422 JUMP JUMPDEST DUP5 ADD SWAP2 POP POP SWAP3 SWAP2 POP POP JUMP JUMPDEST PUSH1 0x0 PUSH1 0x60 DUP4 ADD PUSH1 0x0 DUP4 ADD MLOAD PUSH2 0x19CF PUSH1 0x0 DUP7 ADD DUP3 PUSH2 0x195E JUMP JUMPDEST POP PUSH1 0x20 DUP4 ADD MLOAD DUP5 DUP3 SUB PUSH1 0x20 DUP7 ADD MSTORE PUSH2 0x19E7 DUP3 DUP3 PUSH2 0x197E JUMP JUMPDEST SWAP2 POP POP PUSH1 0x40 DUP4 ADD MLOAD PUSH2 0x19FC PUSH1 0x40 DUP7 ADD DUP3 PUSH2 0x16B1 JUMP JUMPDEST POP DUP1 SWAP2 POP POP SWAP3 SWAP2 POP POP JUMP JUMPDEST PUSH1 0x0 PUSH2 0x1A13 DUP4 DUP4 PUSH2 0x19B7 JUMP JUMPDEST SWAP1 POP SWAP3 SWAP2 POP POP JUMP JUMPDEST PUSH1 0x0 PUSH1 0x20 DUP3 ADD SWAP1 POP SWAP2 SWAP1 POP JUMP JUMPDEST PUSH1 0x0 PUSH2 0x1A33 DUP3 PUSH2 0x1932 JUMP JUMPDEST PUSH2 0x1A3D DUP2 DUP6 PUSH2 0x193D JUMP JUMPDEST SWAP4 POP DUP4 PUSH1 0x20 DUP3 MUL DUP6 ADD PUSH2 0x1A4F DUP6 PUSH2 0x194E JUMP JUMPDEST DUP1 PUSH1 0x0 JUMPDEST DUP6 DUP2 LT ISZERO PUSH2 0x1A8B JUMPI DUP5 DUP5 SUB DUP10 MSTORE DUP2 MLOAD PUSH2 0x1A6C DUP6 DUP3 PUSH2 0x1A07 JUMP JUMPDEST SWAP5 POP PUSH2 0x1A77 DUP4 PUSH2 0x1A1B JUMP JUMPDEST SWAP3 POP PUSH1 0x20 DUP11 ADD SWAP10 POP POP PUSH1 0x1 DUP2 ADD SWAP1 POP PUSH2 0x1A53 JUMP JUMPDEST POP DUP3 SWAP8 POP DUP8 SWAP6 POP POP POP POP POP POP SWAP3 SWAP2 POP POP JUMP JUMPDEST PUSH1 0x0 PUSH1 0x20 DUP3 ADD SWAP1 POP DUP2 DUP2 SUB PUSH1 0x0 DUP4 ADD MSTORE PUSH2 0x1AB7 DUP2 DUP5 PUSH2 0x1A28 JUMP JUMPDEST SWAP1 POP SWAP3 SWAP2 POP POP JUMP JUMPDEST PUSH1 0x0 PUSH1 0x60 DUP4 ADD PUSH1 0x0 DUP4 ADD MLOAD PUSH2 0x1AD7 PUSH1 0x0 DUP7 ADD DUP3 PUSH2 0x195E JUMP JUMPDEST POP PUSH1 0x20 DUP4 ADD MLOAD DUP5 DUP3 SUB PUSH1 0x20 DUP7 ADD MSTORE PUSH2 0x1AEF DUP3 DUP3 PUSH2 0x197E JUMP JUMPDEST SWAP2 POP POP PUSH1 0x40 DUP4 ADD MLOAD PUSH2 0x1B04 PUSH1 0x40 DUP7 ADD DUP3 PUSH2 0x16B1 JUMP JUMPDEST POP DUP1 SWAP2 POP POP SWAP3 SWAP2 POP POP JUMP JUMPDEST PUSH1 0x0 PUSH1 0x20 DUP3 ADD SWAP1 POP DUP2 DUP2 SUB PUSH1 0x0 DUP4 ADD MSTORE PUSH2 0x1B29 DUP2 DUP5 PUSH2 0x1ABF JUMP JUMPDEST SWAP1 POP SWAP3 SWAP2 POP POP JUMP JUMPDEST PUSH32 0x4E487B7100000000000000000000000000000000000000000000000000000000 PUSH1 0x0 MSTORE PUSH1 0x22 PUSH1 0x4 MSTORE PUSH1 0x24 PUSH1 0x0 REVERT JUMPDEST PUSH1 0x0 PUSH1 0x2 DUP3 DIV SWAP1 POP PUSH1 0x1 DUP3 AND DUP1 PUSH2 0x1B78 JUMPI PUSH1 0x7F DUP3 AND SWAP2 POP JUMPDEST PUSH1 0x20 DUP3 LT DUP2 SUB PUSH2 0x1B8B JUMPI PUSH2 0x1B8A PUSH2 0x1B31 JUMP JUMPDEST JUMPDEST POP SWAP2 SWAP1 POP JUMP JUMPDEST PUSH1 0x0 DUP2 SWAP1 POP DUP2 PUSH1 0x0 MSTORE PUSH1 0x20 PUSH1 0x0 KECCAK256 SWAP1 POP SWAP2 SWAP1 POP JUMP JUMPDEST PUSH1 0x0 PUSH1 0x20 PUSH1 0x1F DUP4 ADD DIV SWAP1 POP SWAP2 SWAP1 POP JUMP JUMPDEST PUSH1 0x0 DUP3 DUP3 SHL SWAP1 POP SWAP3 SWAP2 POP POP JUMP JUMPDEST PUSH1 0x0 PUSH1 0x8 DUP4 MUL PUSH2 0x1BF3 PUSH32 0xFFFFFFFFFFFFFFFFFFFFFFFFFFFFFFFFFFFFFFFFFFFFFFFFFFFFFFFFFFFFFFFF DUP3 PUSH2 0x1BB6 JUMP JUMPDEST PUSH2 0x1BFD DUP7 DUP4 PUSH2 0x1BB6 JUMP JUMPDEST SWAP6 POP DUP1 NOT DUP5 AND SWAP4 POP DUP1 DUP7 AND DUP5 OR SWAP3 POP POP POP SWAP4 SWAP3 POP POP POP JUMP JUMPDEST PUSH1 0x0 DUP2 SWAP1 POP SWAP2 SWAP1 POP JUMP JUMPDEST PUSH1 0x0 PUSH2 0x1C3A PUSH2 0x1C35 PUSH2 0x1C30 DUP5 PUSH2 0x13E2 JUMP JUMPDEST PUSH2 0x1C15 JUMP JUMPDEST PUSH2 0x13E2 JUMP JUMPDEST SWAP1 POP SWAP2 SWAP1 POP JUMP JUMPDEST PUSH1 0x0 DUP2 SWAP1 POP SWAP2 SWAP1 POP JUMP JUMPDEST PUSH2 0x1C54 DUP4 PUSH2 0x1C1F JUMP JUMPDEST PUSH2 0x1C68 PUSH2 0x1C60 DUP3 PUSH2 0x1C41 JUMP JUMPDEST DUP5 DUP5 SLOAD PUSH2 0x1BC3 JUMP JUMPDEST DUP3 SSTORE POP POP POP POP JUMP JUMPDEST PUSH1 0x0 SWAP1 JUMP JUMPDEST PUSH2 0x1C7D PUSH2 0x1C70 JUMP JUMPDEST PUSH2 0x1C88 DUP2 DUP5 DUP5 PUSH2 0x1C4B JUMP JUMPDEST POP POP POP JUMP JUMPDEST JUMPDEST DUP2 DUP2 LT ISZERO PUSH2 0x1CAC JUMPI PUSH2 0x1CA1 PUSH1 0x0 DUP3 PUSH2 0x1C75 JUMP JUMPDEST PUSH1 0x1 DUP2 ADD SWAP1 POP PUSH2 0x1C8E JUMP JUMPDEST POP POP JUMP JUMPDEST PUSH1 0x1F DUP3 GT ISZERO PUSH2 0x1CF1 JUMPI PUSH2 0x1CC2 DUP2 PUSH2 0x1B91 JUMP JUMPDEST PUSH2 0x1CCB DUP5 PUSH2 0x1BA6 JUMP JUMPDEST DUP2 ADD PUSH1 0x20 DUP6 LT ISZERO PUSH2 0x1CDA JUMPI DUP2 SWAP1 POP JUMPDEST PUSH2 0x1CEE PUSH2 0x1CE6 DUP6 PUSH2 0x1BA6 JUMP JUMPDEST DUP4 ADD DUP3 PUSH2 0x1C8D JUMP JUMPDEST POP POP JUMPDEST POP POP POP JUMP JUMPDEST PUSH1 0x0 DUP3 DUP3 SHR SWAP1 POP SWAP3 SWAP2 POP POP JUMP JUMPDEST PUSH1 0x0 PUSH2 0x1D14 PUSH1 0x0 NOT DUP5 PUSH1 0x8 MUL PUSH2 0x1CF6 JUMP JUMPDEST NOT DUP1 DUP4 AND SWAP2 POP POP SWAP3 SWAP2 POP POP JUMP JUMPDEST PUSH1 0x0 PUSH2 0x1D2D DUP4 DUP4 PUSH2 0x1D03 JUMP JUMPDEST SWAP2 POP DUP3 PUSH1 0x2 MUL DUP3 OR SWAP1 POP SWAP3 SWAP2 POP POP JUMP JUMPDEST PUSH2 0x1D46 DUP3 PUSH2 0x1845 JUMP JUMPDEST PUSH8 0xFFFFFFFFFFFFFFFF DUP2 GT ISZERO PUSH2 0x1D5F JUMPI PUSH2 0x1D5E PUSH2 0x1433 JUMP JUMPDEST JUMPDEST PUSH2 0x1D69 DUP3 SLOAD PUSH2 0x1B60 JUMP JUMPDEST PUSH2 0x1D74 DUP3 DUP3 DUP6 PUSH2 0x1CB0 JUMP JUMPDEST PUSH1 0x0 PUSH1 0x20 SWAP1 POP PUSH1 0x1F DUP4 GT PUSH1 0x1 DUP2 EQ PUSH2 0x1DA7 JUMPI PUSH1 0x0 DUP5 ISZERO PUSH2 0x1D95 JUMPI DUP3 DUP8 ADD MLOAD SWAP1 POP JUMPDEST PUSH2 0x1D9F DUP6 DUP3 PUSH2 0x1D21 JUMP JUMPDEST DUP7 SSTORE POP PUSH2 0x1E07 JUMP JUMPDEST PUSH1 0x1F NOT DUP5 AND PUSH2 0x1DB5 DUP7 PUSH2 0x1B91 JUMP JUMPDEST PUSH1 0x0 JUMPDEST DUP3 DUP2 LT ISZERO PUSH2 0x1DDD JUMPI DUP5 DUP10 ADD MLOAD DUP3 SSTORE PUSH1 0x1 DUP3 ADD SWAP2 POP PUSH1 0x20 DUP6 ADD SWAP5 POP PUSH1 0x20 DUP2 ADD SWAP1 POP PUSH2 0x1DB8 JUMP JUMPDEST DUP7 DUP4 LT ISZERO PUSH2 0x1DFA JUMPI DUP5 DUP10 ADD MLOAD PUSH2 0x1DF6 PUSH1 0x1F DUP10 AND DUP3 PUSH2 0x1D03 JUMP JUMPDEST DUP4 SSTORE POP JUMPDEST PUSH1 0x1 PUSH1 0x2 DUP9 MUL ADD DUP9 SSTORE POP POP POP JUMPDEST POP POP POP POP POP POP JUMP JUMPDEST PUSH1 0x0 PUSH1 0x20 DUP3 ADD SWAP1 POP PUSH2 0x1E24 PUSH1 0x0 DUP4 ADD DUP5 PUSH2 0x1836 JUMP JUMPDEST SWAP3 SWAP2 POP POP JUMP JUMPDEST PUSH32 0x4E487B7100000000000000000000000000000000000000000000000000000000 PUSH1 0x0 MSTORE PUSH1 0x11 PUSH1 0x4 MSTORE PUSH1 0x24 PUSH1 0x0 REVERT JUMPDEST PUSH1 0x0 PUSH2 0x1E64 DUP3 PUSH2 0x13E2 JUMP JUMPDEST SWAP2 POP PUSH2 0x1E6F DUP4 PUSH2 0x13E2 JUMP JUMPDEST SWAP3 POP DUP3 DUP3 SUB SWAP1 POP DUP2 DUP2 GT ISZERO PUSH2 0x1E87 JUMPI PUSH2 0x1E86 PUSH2 0x1E2A JUMP JUMPDEST JUMPDEST SWAP3 SWAP2 POP POP JUMP JUMPDEST PUSH32 0x4E487B7100000000000000000000000000000000000000000000000000000000 PUSH1 0x0 MSTORE PUSH1 0x32 PUSH1 0x4 MSTORE PUSH1 0x24 PUSH1 0x0 REVERT JUMPDEST PUSH32 0x4E6F7420617574686F72697A656420746F2064656C6976657200000000000000 PUSH1 0x0 DUP3 ADD MSTORE POP JUMP JUMPDEST PUSH1 0x0 PUSH2 0x1EF2 PUSH1 0x19 DUP4 PUSH2 0x1850 JUMP JUMPDEST SWAP2 POP PUSH2 0x1EFD DUP3 PUSH2 0x1EBC JUMP JUMPDEST PUSH1 0x20 DUP3 ADD SWAP1 POP SWAP2 SWAP1 POP JUMP JUMPDEST PUSH1 0x0 PUSH1 0x20 DUP3 ADD SWAP1 POP DUP2 DUP2 SUB PUSH1 0x0 DUP4 ADD MSTORE PUSH2 0x1F21 DUP2 PUSH2 0x1EE5 JUMP JUMPDEST SWAP1 POP SWAP2 SWAP1 POP JUMP JUMPDEST PUSH32 0x4E6F742064656C69766572656400000000000000000000000000000000000000 PUSH1 0x0 DUP3 ADD MSTORE POP JUMP JUMPDEST PUSH1 0x0 PUSH2 0x1F5E PUSH1 0xD DUP4 PUSH2 0x1850 JUMP JUMPDEST SWAP2 POP PUSH2 0x1F69 DUP3 PUSH2 0x1F28 JUMP JUMPDEST PUSH1 0x20 DUP3 ADD SWAP1 POP SWAP2 SWAP1 POP JUMP JUMPDEST PUSH1 0x0 PUSH1 0x20 DUP3 ADD SWAP1 POP DUP2 DUP2 SUB PUSH1 0x0 DUP4 ADD MSTORE PUSH2 0x1F8D DUP2 PUSH2 0x1F51 JUMP JUMPDEST SWAP1 POP SWAP2 SWAP1 POP JUMP JUMPDEST PUSH1 0x0 PUSH1 0x40 DUP3 ADD SWAP1 POP PUSH2 0x1FA9 PUSH1 0x0 DUP4 ADD DUP6 PUSH2 0x1836 JUMP JUMPDEST PUSH2 0x1FB6 PUSH1 0x20 DUP4 ADD DUP5 PUSH2 0x17EF JUMP JUMPDEST SWAP4 SWAP3 POP POP POP JUMP JUMPDEST PUSH32 0x4E6F7420746865206578706563746564206163636570746F7200000000000000 PUSH1 0x0 DUP3 ADD MSTORE POP JUMP JUMPDEST PUSH1 0x0 PUSH2 0x1FF3 PUSH1 0x19 DUP4 PUSH2 0x1850 JUMP JUMPDEST SWAP2 POP PUSH2 0x1FFE DUP3 PUSH2 0x1FBD JUMP JUMPDEST PUSH1 0x20 DUP3 ADD SWAP1 POP SWAP2 SWAP1 POP JUMP JUMPDEST PUSH1 0x0 PUSH1 0x20 DUP3 ADD SWAP1 POP DUP2 DUP2 SUB PUSH1 0x0 DUP4 ADD MSTORE PUSH2 0x2022 DUP2 PUSH2 0x1FE6 JUMP JUMPDEST SWAP1 POP SWAP2 SWAP1 POP JUMP JUMPDEST PUSH32 0x44656C697665727920616C726561647920616363657074656400000000000000 PUSH1 0x0 DUP3 ADD MSTORE POP JUMP JUMPDEST PUSH1 0x0 PUSH2 0x205F PUSH1 0x19 DUP4 PUSH2 0x1850 JUMP JUMPDEST SWAP2 POP PUSH2 0x206A DUP3 PUSH2 0x2029 JUMP JUMPDEST PUSH1 0x20 DUP3 ADD SWAP1 POP SWAP2 SWAP1 POP JUMP JUMPDEST PUSH1 0x0 PUSH1 0x20 DUP3 ADD SWAP1 POP DUP2 DUP2 SUB PUSH1 0x0 DUP4 ADD MSTORE PUSH2 0x208E DUP2 PUSH2 0x2052 JUMP JUMPDEST SWAP1 POP SWAP2 SWAP1 POP JUMP JUMPDEST PUSH1 0x0 PUSH1 0x80 DUP3 ADD SWAP1 POP PUSH2 0x20AA PUSH1 0x0 DUP4 ADD DUP8 PUSH2 0x1836 JUMP JUMPDEST PUSH2 0x20B7 PUSH1 0x20 DUP4 ADD DUP7 PUSH2 0x17EF JUMP JUMPDEST PUSH2 0x20C4 PUSH1 0x40 DUP4 ADD DUP6 PUSH2 0x17EF JUMP JUMPDEST PUSH2 0x20D1 PUSH1 0x60 DUP4 ADD DUP5 PUSH2 0x17EF JUMP JUMPDEST SWAP6 SWAP5 POP POP POP POP POP JUMP JUMPDEST PUSH1 0x0 PUSH2 0x20E5 DUP3 PUSH2 0x13E2 JUMP JUMPDEST SWAP2 POP PUSH32 0xFFFFFFFFFFFFFFFFFFFFFFFFFFFFFFFFFFFFFFFFFFFFFFFFFFFFFFFFFFFFFFFF DUP3 SUB PUSH2 0x2117 JUMPI PUSH2 0x2116 PUSH2 0x1E2A JUMP JUMPDEST JUMPDEST PUSH1 0x1 DUP3 ADD SWAP1 POP SWAP2 SWAP1 POP JUMP INVALID LOG2 PUSH5 0x6970667358 0x22 SLT KECCAK256 BLOBBASEFEE 0xEC 0x28 SGT SWAP5 PUSH29 0x72D708AB06536776E2AAD68C382A19CB68E4F465AAAE58D58DA364736F PUSH13 0x634300081C0033000000000000 "
        },
        "methodIdentifiers": {
          "AcceptDelivery(uint256)": "915b59a3",
          "DeliverNext(uint256,address)": "32523012",
          "Link(uint256,uint256)": "60d1b93d",
          "ProductDetails(uint256)": "fa2f3e27",
          "Track(uint256)": "5b12a84a",
          "addProduct(uint256,string)": "23cd950a",
          "products(uint256)": "7acc0b20",
          "showProducts()": "a34e5649",
          "verify(uint256)": "8753367f"
        }
      }
    }
  }
}