{
  "_format": "hh-sol-artifact-1",
  "contractName": "Supply",
  "sourceName": "contracts/Supply.sol",
  "abi": [
    {
      "anonymous": false,
      "inputs": [
        {
          "indexed": false,
          "internalType": "uint256",
          "name": "id",
          "type": "uint256"
        }
      ],
      "name": "Added",
      "type": "event"
    },
    {
      "anonymous": false,
      "inputs": [
        {
          "indexed": false,
          "internalType": "uint256",
          "name": "id",
          "type": "uint256"
        },
        {
          "indexed": false,
          "internalType": "address",
          "name": "nextAddress",
          "type": "address"
        }
      ],
      "name": "Addednext",
      "type": "event"
    },
    {
      "anonymous": false,
      "inputs": [
        {
          "indexed": false,
          "internalType": "uint256",
          "name": "id",
          "type": "uint256"
        },
        {
          "indexed": false,
          "internalType": "address",
          "name": "current",
          "type": "address"
        },
        {
          "indexed": false,
          "internalType": "address",
          "name": "prev",
          "type": "address"
        },
        {
          "indexed": false,
          "internalType": "address",
          "name": "owner",
          "type": "address"
        }
      ],
      "name": "Delivered",
      "type": "event"
    },
    {
      "anonymous": false,
      "inputs": [],
      "name": "InvalidAcceptor",
      "type": "event"
    },
    {
      "inputs": [
        {
          "internalType": "uint256",
          "name": "id",
          "type": "uint256"
        }
      ],
      "name": "AcceptDelivery",
      "outputs": [],
      "stateMutability": "nonpayable",
      "type": "function"
    },
    {
      "inputs": [
        {
          "internalType": "uint256",
          "name": "id",
          "type": "uint256"
        },
        {
          "internalType": "address",
          "name": "nextAddress",
          "type": "address"
        }
      ],
      "name": "DeliverNext",
      "outputs": [],
      "stateMutability": "nonpayable",
      "type": "function"
    },
    {
      "inputs": [
        {
          "internalType": "uint256",
          "name": "",
          "type": "uint256"
        },
        {
          "internalType": "uint256",
          "name": "",
          "type": "uint256"
        }
      ],
      "name": "Link",
      "outputs": [
        {
          "internalType": "address",
          "name": "next",
          "type": "address"
        },
        {
          "internalType": "bool",
          "name": "DelStatus",
          "type": "bool"
        }
      ],
      "stateMutability": "view",
      "type": "function"
    },
    {
      "inputs": [
        {
          "internalType": "uint256",
          "name": "id",
          "type": "uint256"
        }
      ],
      "name": "ProductDetails",
      "outputs": [
        {
          "components": [
            {
              "internalType": "uint256",
              "name": "id",
              "type": "uint256"
            },
            {
              "internalType": "string",
              "name": "name",
              "type": "string"
            },
            {
              "internalType": "address",
              "name": "Manufacturer",
              "type": "address"
            }
          ],
          "internalType": "struct Supply.Product",
          "name": "prod",
          "type": "tuple"
        }
      ],
      "stateMutability": "view",
      "type": "function"
    },
    {
      "inputs": [
        {
          "internalType": "uint256",
          "name": "id",
          "type": "uint256"
        }
      ],
      "name": "Track",
      "outputs": [
        {
          "components": [
            {
              "internalType": "address",
              "name": "next",
              "type": "address"
            },
            {
              "internalType": "bool",
              "name": "DelStatus",
              "type": "bool"
            }
          ],
          "internalType": "struct Supply.Next[]",
          "name": "track",
          "type": "tuple[]"
        }
      ],
      "stateMutability": "view",
      "type": "function"
    },
    {
      "inputs": [
        {
          "internalType": "uint256",
          "name": "id",
          "type": "uint256"
        },
        {
          "internalType": "string",
          "name": "Pname",
          "type": "string"
        }
      ],
      "name": "addProduct",
      "outputs": [],
      "stateMutability": "nonpayable",
      "type": "function"
    },
    {
      "inputs": [
        {
          "internalType": "uint256",
          "name": "",
          "type": "uint256"
        }
      ],
      "name": "products",
      "outputs": [
        {
          "internalType": "uint256",
          "name": "id",
          "type": "uint256"
        },
        {
          "internalType": "string",
          "name": "name",
          "type": "string"
        },
        {
          "internalType": "address",
          "name": "Manufacturer",
          "type": "address"
        }
      ],
      "stateMutability": "view",
      "type": "function"
    },
    {
      "inputs": [],
      "name": "showProducts",
      "outputs": [
        {
          "components": [
            {
              "internalType": "uint256",
              "name": "id",
              "type": "uint256"
            },
            {
              "internalType": "string",
              "name": "name",
              "type": "string"
            },
            {
              "internalType": "address",
              "name": "Manufacturer",
              "type": "address"
            }
          ],
          "internalType": "struct Supply.Product[]",
          "name": "productList",
          "type": "tuple[]"
        }
      ],
      "stateMutability": "view",
      "type": "function"
    },
    {
      "inputs": [
        {
          "internalType": "uint256",
          "name": "id",
          "type": "uint256"
        }
      ],
      "name": "verify",
      "outputs": [
        {
          "components": [
            {
              "internalType": "address",
              "name": "next",
              "type": "address"
            },
            {
              "internalType": "bool",
              "name": "DelStatus",
              "type": "bool"
            }
          ],
          "internalType": "struct Supply.Next[]",
          "name": "",
          "type": "tuple[]"
        },
        {
          "internalType": "bool",
          "name": "",
          "type": "bool"
        }
      ],
      "stateMutability": "view",
      "type": "function"
    }
  ],
  "bytecode": "0x6080604052348015600f57600080fd5b506121588061001f6000396000f3fe608060405234801561001057600080fd5b50600436106100935760003560e01c80637acc0b20116100665780637acc0b20146101315780638753367f14610163578063915b59a314610194578063a34e5649146101b0578063fa2f3e27146101ce57610093565b806323cd950a1461009857806332523012146100b45780635b12a84a146100d057806360d1b93d14610100575b600080fd5b6100b260048036038101906100ad919061155e565b6101fe565b005b6100ce60048036038101906100c99190611618565b6103df565b005b6100ea60048036038101906100e59190611658565b610675565b6040516100f7919061178d565b60405180910390f35b61011a600480360381019061011591906117af565b61082a565b60405161012892919061180d565b60405180910390f35b61014b60048036038101906101469190611658565b610894565b60405161015a939291906118c4565b60405180910390f35b61017d60048036038101906101789190611658565b610966565b60405161018b929190611902565b60405180910390f35b6101ae60048036038101906101a99190611658565b610b5e565b005b6101b8610e14565b6040516101c59190611a9d565b60405180910390f35b6101e860048036038101906101e39190611658565b611065565b6040516101f59190611b0f565b60405180910390f35b60405180606001604052808381526020018281526020013373ffffffffffffffffffffffffffffffffffffffff16815250600160008481526020019081526020016000206000820151816000015560208201518160010190816102619190611d3d565b5060408201518160020160006101000a81548173ffffffffffffffffffffffffffffffffffffffff021916908373ffffffffffffffffffffffffffffffffffffffff1602179055509050506002600083815260200190815260200160002060405180604001604052803373ffffffffffffffffffffffffffffffffffffffff168152602001600115158152509080600181540180825580915050600190039060005260206000200160009091909190915060008201518160000160006101000a81548173ffffffffffffffffffffffffffffffffffffffff021916908373ffffffffffffffffffffffffffffffffffffffff16021790555060208201518160000160146101000a81548160ff021916908315150217905550505060008290806001815401808255809150506001900390600052602060002001600090919091909150557f64a55044d1f2eddebe1b90e8e2853e8e96931cefadbfa0b2ceb34bee36061941826040516103d39190611e0f565b60405180910390a15050565b3373ffffffffffffffffffffffffffffffffffffffff16600260008481526020019081526020016000206001600260008681526020019081526020016000208054905061042c9190611e59565b8154811061043d5761043c611e8d565b5b9060005260206000200160000160009054906101000a900473ffffffffffffffffffffffffffffffffffffffff1673ffffffffffffffffffffffffffffffffffffffff16146104c1576040517f08c379a00000000000000000000000000000000000000000000000000000000081526004016104b890611f08565b60405180910390fd5b6001151560026000848152602001908152602001600020600160026000868152602001908152602001600020805490506104fb9190611e59565b8154811061050c5761050b611e8d565b5b9060005260206000200160000160149054906101000a900460ff16151514610569576040517f08c379a000000000000000000000000000000000000000000000000000000000815260040161056090611f74565b60405180910390fd5b6002600083815260200190815260200160002060405180604001604052808373ffffffffffffffffffffffffffffffffffffffff168152602001600015158152509080600181540180825580915050600190039060005260206000200160009091909190915060008201518160000160006101000a81548173ffffffffffffffffffffffffffffffffffffffff021916908373ffffffffffffffffffffffffffffffffffffffff16021790555060208201518160000160146101000a81548160ff02191690831515021790555050507f14d98a680d48365f0a6c905042d9581c316790fcc5b03ccbdb7954fead16c4208282604051610669929190611f94565b60405180910390a15050565b6060600080600090505b6002600085815260200190815260200160002080549050811015610738573373ffffffffffffffffffffffffffffffffffffffff166002600086815260200190815260200160002082815481106106d9576106d8611e8d565b5b9060005260206000200160000160009054906101000a900473ffffffffffffffffffffffffffffffffffffffff1673ffffffffffffffffffffffffffffffffffffffff160361072b5760019150610738565b808060010191505061067f565b5060011515811515036108235760026000848152602001908152602001600020805480602002602001604051908101604052809291908181526020016000905b82821015610817578382906000526020600020016040518060400160405290816000820160009054906101000a900473ffffffffffffffffffffffffffffffffffffffff1673ffffffffffffffffffffffffffffffffffffffff1673ffffffffffffffffffffffffffffffffffffffff1681526020016000820160149054906101000a900460ff16151515158152505081526020019060010190610778565b50505050915050610825565b505b919050565b6002602052816000526040600020818154811061084657600080fd5b90600052602060002001600091509150508060000160009054906101000a900473ffffffffffffffffffffffffffffffffffffffff16908060000160149054906101000a900460ff16905082565b60016020528060005260406000206000915090508060000154908060010180546108bd90611b60565b80601f01602080910402602001604051908101604052809291908181526020018280546108e990611b60565b80156109365780601f1061090b57610100808354040283529160200191610936565b820191906000526020600020905b81548152906001019060200180831161091957829003601f168201915b5050505050908060020160009054906101000a900473ffffffffffffffffffffffffffffffffffffffff16905083565b606060008060005b6002600086815260200190815260200160002080549050811015610a7957600073ffffffffffffffffffffffffffffffffffffffff166002600087815260200190815260200160002082815481106109c9576109c8611e8d565b5b9060005260206000200160000160009054906101000a900473ffffffffffffffffffffffffffffffffffffffff1673ffffffffffffffffffffffffffffffffffffffff1614158015610a5e575060011515600260008781526020019081526020016000208281548110610a3f57610a3e611e8d565b5b9060005260206000200160000160149054906101000a900460ff161515145b15610a6c5760019150610a79565b808060010191505061096e565b50600260008581526020019081526020016000208181805480602002602001604051908101604052809291908181526020016000905b82821015610b4e578382906000526020600020016040518060400160405290816000820160009054906101000a900473ffffffffffffffffffffffffffffffffffffffff1673ffffffffffffffffffffffffffffffffffffffff1673ffffffffffffffffffffffffffffffffffffffff1681526020016000820160149054906101000a900460ff16151515158152505081526020019060010190610aaf565b5050505091509250925050915091565b600060016002600084815260200190815260200160002080549050610b839190611e59565b90503373ffffffffffffffffffffffffffffffffffffffff16600260008481526020019081526020016000208281548110610bc157610bc0611e8d565b5b9060005260206000200160000160009054906101000a900473ffffffffffffffffffffffffffffffffffffffff1673ffffffffffffffffffffffffffffffffffffffff1614610c45576040517f08c379a0000000000000000000000000000000000000000000000000000000008152600401610c3c90612009565b60405180910390fd5b60001515600260008481526020019081526020016000208281548110610c6e57610c6d611e8d565b5b9060005260206000200160000160149054906101000a900460ff16151514610ccb576040517f08c379a0000000000000000000000000000000000000000000000000000000008152600401610cc290612075565b60405180910390fd5b6001600260008481526020019081526020016000208281548110610cf257610cf1611e8d565b5b9060005260206000200160000160146101000a81548160ff021916908315150217905550600060026000848152602001908152602001600020600183610d389190611e59565b81548110610d4957610d48611e8d565b5b9060005260206000200160000160009054906101000a900473ffffffffffffffffffffffffffffffffffffffff169050600060026000858152602001908152602001600020600081548110610da157610da0611e8d565b5b9060005260206000200160000160009054906101000a900473ffffffffffffffffffffffffffffffffffffffff1690507fcacb7e308b842a06026decd9a1003d03ebcd115502c475c098b52dd4fe34c92484338484604051610e069493929190612095565b60405180910390a150505050565b60606000805b600080549050811015610e75576000808281548110610e3c57610e3b611e8d565b5b90600052602060002001549050610e53813361125a565b15610e67578280610e63906120da565b9350505b508080600101915050610e1a565b5060008167ffffffffffffffff811115610e9257610e91611433565b5b604051908082528060200260200182016040528015610ecb57816020015b610eb8611397565b815260200190600190039081610eb05790505b5090506000805b60008054905081101561105b576000808281548110610ef457610ef3611e8d565b5b90600052602060002001549050610f0b813361125a565b1561104d576001600082815260200190815260200160002060405180606001604052908160008201548152602001600182018054610f4890611b60565b80601f0160208091040260200160405190810160405280929190818152602001828054610f7490611b60565b8015610fc15780601f10610f9657610100808354040283529160200191610fc1565b820191906000526020600020905b815481529060010190602001808311610fa457829003601f168201915b505050505081526020016002820160009054906101000a900473ffffffffffffffffffffffffffffffffffffffff1673ffffffffffffffffffffffffffffffffffffffff1673ffffffffffffffffffffffffffffffffffffffff168152505084848151811061103357611032611e8d565b5b60200260200101819052508280611049906120da565b9350505b508080600101915050610ed2565b5081935050505090565b61106d611397565b600080600090505b600260008581526020019081526020016000208054905081101561112e573373ffffffffffffffffffffffffffffffffffffffff166002600086815260200190815260200160002082815481106110cf576110ce611e8d565b5b9060005260206000200160000160009054906101000a900473ffffffffffffffffffffffffffffffffffffffff1673ffffffffffffffffffffffffffffffffffffffff1603611121576001915061112e565b8080600101915050611075565b50600115158115150361125357600160008481526020019081526020016000206040518060600160405290816000820154815260200160018201805461117390611b60565b80601f016020809104026020016040519081016040528092919081815260200182805461119f90611b60565b80156111ec5780601f106111c1576101008083540402835291602001916111ec565b820191906000526020600020905b8154815290600101906020018083116111cf57829003601f168201915b505050505081526020016002820160009054906101000a900473ffffffffffffffffffffffffffffffffffffffff1673ffffffffffffffffffffffffffffffffffffffff1673ffffffffffffffffffffffffffffffffffffffff1681525050915050611255565b505b919050565b60008173ffffffffffffffffffffffffffffffffffffffff166001600085815260200190815260200160002060020160009054906101000a900473ffffffffffffffffffffffffffffffffffffffff1673ffffffffffffffffffffffffffffffffffffffff16036112ce5760019050611391565b60005b600260008581526020019081526020016000208054905081101561138b578273ffffffffffffffffffffffffffffffffffffffff1660026000868152602001908152602001600020828154811061132b5761132a611e8d565b5b9060005260206000200160000160009054906101000a900473ffffffffffffffffffffffffffffffffffffffff1673ffffffffffffffffffffffffffffffffffffffff160361137e576001915050611391565b80806001019150506112d1565b50600090505b92915050565b60405180606001604052806000815260200160608152602001600073ffffffffffffffffffffffffffffffffffffffff1681525090565b6000604051905090565b600080fd5b600080fd5b6000819050919050565b6113f5816113e2565b811461140057600080fd5b50565b600081359050611412816113ec565b92915050565b600080fd5b600080fd5b6000601f19601f8301169050919050565b7f4e487b7100000000000000000000000000000000000000000000000000000000600052604160045260246000fd5b61146b82611422565b810181811067ffffffffffffffff8211171561148a57611489611433565b5b80604052505050565b600061149d6113ce565b90506114a98282611462565b919050565b600067ffffffffffffffff8211156114c9576114c8611433565b5b6114d282611422565b9050602081019050919050565b82818337600083830152505050565b60006115016114fc846114ae565b611493565b90508281526020810184848401111561151d5761151c61141d565b5b6115288482856114df565b509392505050565b600082601f83011261154557611544611418565b5b81356115558482602086016114ee565b91505092915050565b60008060408385031215611575576115746113d8565b5b600061158385828601611403565b925050602083013567ffffffffffffffff8111156115a4576115a36113dd565b5b6115b085828601611530565b9150509250929050565b600073ffffffffffffffffffffffffffffffffffffffff82169050919050565b60006115e5826115ba565b9050919050565b6115f5816115da565b811461160057600080fd5b50565b600081359050611612816115ec565b92915050565b6000806040838503121561162f5761162e6113d8565b5b600061163d85828601611403565b925050602061164e85828601611603565b9150509250929050565b60006020828403121561166e5761166d6113d8565b5b600061167c84828501611403565b91505092915050565b600081519050919050565b600082825260208201905092915050565b6000819050602082019050919050565b6116ba816115da565b82525050565b60008115159050919050565b6116d5816116c0565b82525050565b6040820160008201516116f160008501826116b1565b50602082015161170460208501826116cc565b50505050565b600061171683836116db565b60408301905092915050565b6000602082019050919050565b600061173a82611685565b6117448185611690565b935061174f836116a1565b8060005b83811015611780578151611767888261170a565b975061177283611722565b925050600181019050611753565b5085935050505092915050565b600060208201905081810360008301526117a7818461172f565b905092915050565b600080604083850312156117c6576117c56113d8565b5b60006117d485828601611403565b92505060206117e585828601611403565b9150509250929050565b6117f8816115da565b82525050565b611807816116c0565b82525050565b600060408201905061182260008301856117ef565b61182f60208301846117fe565b9392505050565b61183f816113e2565b82525050565b600081519050919050565b600082825260208201905092915050565b60005b8381101561187f578082015181840152602081019050611864565b60008484015250505050565b600061189682611845565b6118a08185611850565b93506118b0818560208601611861565b6118b981611422565b840191505092915050565b60006060820190506118d96000830186611836565b81810360208301526118eb818561188b565b90506118fa60408301846117ef565b949350505050565b6000604082019050818103600083015261191c818561172f565b905061192b60208301846117fe565b9392505050565b600081519050919050565b600082825260208201905092915050565b6000819050602082019050919050565b611967816113e2565b82525050565b600082825260208201905092915050565b600061198982611845565b611993818561196d565b93506119a3818560208601611861565b6119ac81611422565b840191505092915050565b60006060830160008301516119cf600086018261195e565b50602083015184820360208601526119e7828261197e565b91505060408301516119fc60408601826116b1565b508091505092915050565b6000611a1383836119b7565b905092915050565b6000602082019050919050565b6000611a3382611932565b611a3d818561193d565b935083602082028501611a4f8561194e565b8060005b85811015611a8b5784840389528151611a6c8582611a07565b9450611a7783611a1b565b925060208a01995050600181019050611a53565b50829750879550505050505092915050565b60006020820190508181036000830152611ab78184611a28565b905092915050565b6000606083016000830151611ad7600086018261195e565b5060208301518482036020860152611aef828261197e565b9150506040830151611b0460408601826116b1565b508091505092915050565b60006020820190508181036000830152611b298184611abf565b905092915050565b7f4e487b7100000000000000000000000000000000000000000000000000000000600052602260045260246000fd5b60006002820490506001821680611b7857607f821691505b602082108103611b8b57611b8a611b31565b5b50919050565b60008190508160005260206000209050919050565b60006020601f8301049050919050565b600082821b905092915050565b600060088302611bf37fffffffffffffffffffffffffffffffffffffffffffffffffffffffffffffffff82611bb6565b611bfd8683611bb6565b95508019841693508086168417925050509392505050565b6000819050919050565b6000611c3a611c35611c30846113e2565b611c15565b6113e2565b9050919050565b6000819050919050565b611c5483611c1f565b611c68611c6082611c41565b848454611bc3565b825550505050565b600090565b611c7d611c70565b611c88818484611c4b565b505050565b5b81811015611cac57611ca1600082611c75565b600181019050611c8e565b5050565b601f821115611cf157611cc281611b91565b611ccb84611ba6565b81016020851015611cda578190505b611cee611ce685611ba6565b830182611c8d565b50505b505050565b600082821c905092915050565b6000611d1460001984600802611cf6565b1980831691505092915050565b6000611d2d8383611d03565b9150826002028217905092915050565b611d4682611845565b67ffffffffffffffff811115611d5f57611d5e611433565b5b611d698254611b60565b611d74828285611cb0565b600060209050601f831160018114611da75760008415611d95578287015190505b611d9f8582611d21565b865550611e07565b601f198416611db586611b91565b60005b82811015611ddd57848901518255600182019150602085019450602081019050611db8565b86831015611dfa5784890151611df6601f891682611d03565b8355505b6001600288020188555050505b505050505050565b6000602082019050611e246000830184611836565b92915050565b7f4e487b7100000000000000000000000000000000000000000000000000000000600052601160045260246000fd5b6000611e64826113e2565b9150611e6f836113e2565b9250828203905081811115611e8757611e86611e2a565b5b92915050565b7f4e487b7100000000000000000000000000000000000000000000000000000000600052603260045260246000fd5b7f4e6f7420617574686f72697a656420746f2064656c6976657200000000000000600082015250565b6000611ef2601983611850565b9150611efd82611ebc565b602082019050919050565b60006020820190508181036000830152611f2181611ee5565b9050919050565b7f4e6f742064656c69766572656400000000000000000000000000000000000000600082015250565b6000611f5e600d83611850565b9150611f6982611f28565b602082019050919050565b60006020820190508181036000830152611f8d81611f51565b9050919050565b6000604082019050611fa96000830185611836565b611fb660208301846117ef565b9392505050565b7f4e6f7420746865206578706563746564206163636570746f7200000000000000600082015250565b6000611ff3601983611850565b9150611ffe82611fbd565b602082019050919050565b6000602082019050818103600083015261202281611fe6565b9050919050565b7f44656c697665727920616c726561647920616363657074656400000000000000600082015250565b600061205f601983611850565b915061206a82612029565b602082019050919050565b6000602082019050818103600083015261208e81612052565b9050919050565b60006080820190506120aa6000830187611836565b6120b760208301866117ef565b6120c460408301856117ef565b6120d160608301846117ef565b95945050505050565b60006120e5826113e2565b91507fffffffffffffffffffffffffffffffffffffffffffffffffffffffffffffffff820361211757612116611e2a565b5b60018201905091905056fea26469706673582212204aec2813947c72d708ab06536776e2aad68c382a19cb68e4f465aaae58d58da364736f6c634300081c0033",
  "linkReferences": {},
  "deployedLinkReferences": {}
}